{
  "_format": "hh-sol-artifact-1",
  "contractName": "MarketPlace",
  "sourceName": "contracts/MarketPlace.sol",
  "abi": [
    {
      "anonymous": false,
      "inputs": [
        {
          "indexed": false,
          "internalType": "uint8",
          "name": "version",
          "type": "uint8"
        }
      ],
      "name": "Initialized",
      "type": "event"
    },
    {
      "anonymous": false,
      "inputs": [
        {
          "indexed": true,
          "internalType": "address",
          "name": "previousOwner",
          "type": "address"
        },
        {
          "indexed": true,
          "internalType": "address",
          "name": "newOwner",
          "type": "address"
        }
      ],
      "name": "OwnershipTransferred",
      "type": "event"
    },
    {
      "anonymous": false,
      "inputs": [
        {
          "indexed": false,
          "internalType": "uint256",
          "name": "tokenId",
          "type": "uint256"
        },
        {
          "indexed": false,
          "internalType": "address",
          "name": "nftAddress",
          "type": "address"
        },
        {
          "indexed": false,
          "internalType": "uint256",
          "name": "amount",
          "type": "uint256"
        },
        {
          "indexed": false,
          "internalType": "address",
          "name": "winner",
          "type": "address"
        },
        {
          "indexed": false,
          "internalType": "address",
          "name": "sellerAddress",
          "type": "address"
        }
      ],
      "name": "lazy_Auction",
      "type": "event"
    },
    {
      "anonymous": false,
      "inputs": [
        {
          "indexed": false,
          "internalType": "uint256",
          "name": "startTime",
          "type": "uint256"
        },
        {
          "indexed": false,
          "internalType": "uint256",
          "name": "endTime",
          "type": "uint256"
        }
      ],
      "name": "lazy_Auction_duration",
      "type": "event"
    },
    {
      "anonymous": false,
      "inputs": [
        {
          "indexed": false,
          "internalType": "uint256",
          "name": "nonce",
          "type": "uint256"
        },
        {
          "indexed": false,
          "internalType": "address",
          "name": "seller",
          "type": "address"
        },
        {
          "indexed": false,
          "internalType": "address",
          "name": "buyer",
          "type": "address"
        },
        {
          "indexed": false,
          "internalType": "address",
          "name": "assetAddress",
          "type": "address"
        },
        {
          "indexed": false,
          "internalType": "uint256",
          "name": "tokenId",
          "type": "uint256"
        }
      ],
      "name": "lazybuy",
      "type": "event"
    },
    {
      "stateMutability": "payable",
      "type": "fallback"
    },
    {
      "inputs": [
        {
          "components": [
            {
              "internalType": "uint256",
              "name": "nonce",
              "type": "uint256"
            },
            {
              "internalType": "address",
              "name": "sellerAddress",
              "type": "address"
            },
            {
              "internalType": "address",
              "name": "nftAddress",
              "type": "address"
            },
            {
              "internalType": "address",
              "name": "paymentAssetAddress",
              "type": "address"
            },
            {
              "internalType": "uint256",
              "name": "tokenId",
              "type": "uint256"
            },
            {
              "internalType": "uint96",
              "name": "royality",
              "type": "uint96"
            },
            {
              "internalType": "uint256",
              "name": "amount",
              "type": "uint256"
            },
            {
              "internalType": "bytes",
              "name": "sellerSignature",
              "type": "bytes"
            },
            {
              "internalType": "string",
              "name": "tokenUri",
              "type": "string"
            },
            {
              "internalType": "uint256",
              "name": "startTime",
              "type": "uint256"
            },
            {
              "internalType": "uint256",
              "name": "endTime",
              "type": "uint256"
            }
          ],
          "internalType": "struct MarketPlace.SellerDetails",
          "name": "seller",
          "type": "tuple"
        }
      ],
      "name": "LazyBuy",
      "outputs": [],
      "stateMutability": "nonpayable",
      "type": "function"
    },
    {
      "inputs": [],
      "name": "decimalPrecision",
      "outputs": [
        {
          "internalType": "uint256",
          "name": "",
          "type": "uint256"
        }
      ],
      "stateMutability": "view",
      "type": "function"
    },
    {
      "inputs": [
        {
          "internalType": "bytes32",
          "name": "hash",
          "type": "bytes32"
        },
        {
          "internalType": "bytes",
          "name": "_signature",
          "type": "bytes"
        }
      ],
      "name": "getSigner",
      "outputs": [
        {
          "internalType": "address",
          "name": "",
          "type": "address"
        }
      ],
      "stateMutability": "pure",
      "type": "function"
    },
    {
      "inputs": [
        {
          "internalType": "contract IblackList",
          "name": "_blacklistAddress",
          "type": "address"
        }
      ],
      "name": "initialize",
      "outputs": [],
      "stateMutability": "nonpayable",
      "type": "function"
    },
    {
      "inputs": [
        {
          "internalType": "uint256",
          "name": "",
          "type": "uint256"
        }
      ],
      "name": "isNonceProcessed",
      "outputs": [
        {
          "internalType": "bool",
          "name": "",
          "type": "bool"
        }
      ],
      "stateMutability": "view",
      "type": "function"
    },
    {
      "inputs": [
        {
          "components": [
            {
              "internalType": "uint256",
              "name": "nonce",
              "type": "uint256"
            },
            {
              "internalType": "address",
              "name": "sellerAddress",
              "type": "address"
            },
            {
              "internalType": "address",
              "name": "nftAddress",
              "type": "address"
            },
            {
              "internalType": "address",
              "name": "paymentAssetAddress",
              "type": "address"
            },
            {
              "internalType": "uint256",
              "name": "tokenId",
              "type": "uint256"
            },
            {
              "internalType": "uint96",
              "name": "royality",
              "type": "uint96"
            },
            {
              "internalType": "uint256",
              "name": "amount",
              "type": "uint256"
            },
            {
              "internalType": "bytes",
              "name": "sellerSignature",
              "type": "bytes"
            },
            {
              "internalType": "string",
              "name": "tokenUri",
              "type": "string"
            },
            {
              "internalType": "uint256",
              "name": "startTime",
              "type": "uint256"
            },
            {
              "internalType": "uint256",
              "name": "endTime",
              "type": "uint256"
            }
          ],
          "internalType": "struct MarketPlace.SellerDetails",
          "name": "sellerDetails",
          "type": "tuple"
        },
        {
          "components": [
            {
              "internalType": "address",
              "name": "winnerAddress",
              "type": "address"
            },
            {
              "internalType": "uint256",
              "name": "amount",
              "type": "uint256"
            },
            {
              "internalType": "bytes",
              "name": "winnerSignature",
              "type": "bytes"
            },
            {
              "internalType": "uint256",
              "name": "bidTime",
              "type": "uint256"
            },
            {
              "internalType": "uint256",
              "name": "nonce",
              "type": "uint256"
            }
          ],
          "internalType": "struct MarketPlace.WinnerDetails",
          "name": "winnerDetails",
          "type": "tuple"
        }
      ],
      "name": "lazyAuction",
      "outputs": [],
      "stateMutability": "nonpayable",
      "type": "function"
    },
    {
      "inputs": [],
      "name": "owner",
      "outputs": [
        {
          "internalType": "address",
          "name": "",
          "type": "address"
        }
      ],
      "stateMutability": "view",
      "type": "function"
    },
    {
      "inputs": [],
      "name": "platFormFeePercent",
      "outputs": [
        {
          "internalType": "uint256",
          "name": "",
          "type": "uint256"
        }
      ],
      "stateMutability": "view",
      "type": "function"
    },
    {
      "inputs": [],
      "name": "renounceOwnership",
      "outputs": [],
      "stateMutability": "nonpayable",
      "type": "function"
    },
    {
      "inputs": [
        {
          "internalType": "uint256",
          "name": "_newPlatFormFeePercent",
          "type": "uint256"
        }
      ],
      "name": "setPlatFormFeePercent",
      "outputs": [],
      "stateMutability": "nonpayable",
      "type": "function"
    },
    {
      "inputs": [
        {
          "internalType": "address",
          "name": "newOwner",
          "type": "address"
        }
      ],
      "name": "transferOwnership",
      "outputs": [],
      "stateMutability": "nonpayable",
      "type": "function"
    },
    {
      "inputs": [
        {
          "components": [
            {
              "internalType": "uint256",
              "name": "nonce",
              "type": "uint256"
            },
            {
              "internalType": "address",
              "name": "sellerAddress",
              "type": "address"
            },
            {
              "internalType": "address",
              "name": "nftAddress",
              "type": "address"
            },
            {
              "internalType": "address",
              "name": "paymentAssetAddress",
              "type": "address"
            },
            {
              "internalType": "uint256",
              "name": "tokenId",
              "type": "uint256"
            },
            {
              "internalType": "uint96",
              "name": "royality",
              "type": "uint96"
            },
            {
              "internalType": "uint256",
              "name": "amount",
              "type": "uint256"
            },
            {
              "internalType": "bytes",
              "name": "sellerSignature",
              "type": "bytes"
            },
            {
              "internalType": "string",
              "name": "tokenUri",
              "type": "string"
            },
            {
              "internalType": "uint256",
              "name": "startTime",
              "type": "uint256"
            },
            {
              "internalType": "uint256",
              "name": "endTime",
              "type": "uint256"
            }
          ],
          "internalType": "struct MarketPlace.SellerDetails",
          "name": "sellerDetails",
          "type": "tuple"
        }
      ],
      "name": "verifySellerSign",
      "outputs": [
        {
          "internalType": "address",
          "name": "",
          "type": "address"
        }
      ],
      "stateMutability": "pure",
      "type": "function"
    },
    {
      "inputs": [
        {
          "components": [
            {
              "internalType": "address",
              "name": "winnerAddress",
              "type": "address"
            },
            {
              "internalType": "uint256",
              "name": "amount",
              "type": "uint256"
            },
            {
              "internalType": "bytes",
              "name": "winnerSignature",
              "type": "bytes"
            },
            {
              "internalType": "uint256",
              "name": "bidTime",
              "type": "uint256"
            },
            {
              "internalType": "uint256",
              "name": "nonce",
              "type": "uint256"
            }
          ],
          "internalType": "struct MarketPlace.WinnerDetails",
          "name": "winnerDetails",
          "type": "tuple"
        }
      ],
      "name": "verifyWinnerSign",
      "outputs": [
        {
          "internalType": "address",
          "name": "",
          "type": "address"
        }
      ],
      "stateMutability": "pure",
      "type": "function"
    },
    {
      "stateMutability": "payable",
      "type": "receive"
    }
  ],
  "bytecode": "0x608060405234801561001057600080fd5b5061258c806100206000396000f3fe6080604052600436106100bd5760003560e01c80638da5cb5b11610079578063c4efa66511610056578063c4efa66514610216578063d0b684b61461022b578063f2fde38b1461024b578063f7b2ec0d1461026b57005b80638da5cb5b146101a4578063b4ffc2bf146101d6578063c4d66de8146101f657005b806302525e1b146100c657806320b3860b146100e65780636b3f4b3f14610106578063715018a61461014b578063815a1e4e146101605780638439807c1461018457005b366100c457005b005b3480156100d257600080fd5b506100c46100e1366004612129565b61028b565b3480156100f257600080fd5b506100c46101013660046120ee565b610ef6565b34801561011257600080fd5b506101366101213660046121bd565b60676020526000908152604090205460ff1681565b60405190151581526020015b60405180910390f35b34801561015757600080fd5b506100c4611a1f565b34801561016c57600080fd5b5061017660655481565b604051908152602001610142565b34801561019057600080fd5b506100c461019f3660046121bd565b611a33565b3480156101b057600080fd5b506033546001600160a01b03165b6040516001600160a01b039091168152602001610142565b3480156101e257600080fd5b506101be6101f136600461218a565b611a40565b34801561020257600080fd5b506100c4610211366004611fb3565b611afb565b34801561022257600080fd5b50610176606481565b34801561023757600080fd5b506101be6102463660046120ee565b611c2d565b34801561025757600080fd5b506100c4610266366004611fb3565b611cab565b34801561027757600080fd5b506101be610286366004612038565b611d24565b60665460405163e025120d60e01b81523360048201526001600160a01b039091169063e025120d9060240160206040518083038186803b1580156102ce57600080fd5b505afa1580156102e2573d6000803e3d6000fd5b505050506040513d601f19601f820116820180604052508101906103069190612018565b61034d5760405162461bcd60e51b81526020600482015260136024820152721d5cd95c881a5cc8189b1858dadb1a5cdd1959606a1b60448201526064015b60405180910390fd5b813560009081526067602052604090205460ff161561037e5760405162461bcd60e51b815260040161034490612340565b600061038983611c2d565b90506001600160a01b0381166103a56040850160208601611fb3565b6001600160a01b0316146103cb5760405162461bcd60e51b8152600401610344906122ed565b60006103d683611a40565b90506001600160a01b0381166103ef6020850185611fb3565b6001600160a01b03161461045a5760405162461bcd60e51b815260206004820152602c60248201527f4d61726b6574506c6163653a2077696e6e6572207369676e207665726966696360448201526b185d1a5bdb8819985a5b195960a21b6064820152608401610344565b600061046c6060860160408701611fb3565b90506001600160a01b03811663e985e9c561048d6040880160208901611fb3565b306040518363ffffffff1660e01b81526004016104ab92919061225f565b60206040518083038186803b1580156104c357600080fd5b505afa1580156104d7573d6000803e3d6000fd5b505050506040513d601f19601f820116820180604052508101906104fb9190612018565b6105475760405162461bcd60e51b815260206004820181905260248201527f4d61726b6574506c6163653a2061646472657373206e6f7420617070726f76656044820152606401610344565b6000608086013515610717576001600160a01b03821663e985e9c56105726040890160208a01611fb3565b306040518363ffffffff1660e01b815260040161059092919061225f565b60206040518083038186803b1580156105a857600080fd5b505afa1580156105bc573d6000803e3d6000fd5b505050506040513d601f19601f820116820180604052508101906105e09190612018565b8061066e575060405163020604bf60e21b81526080870135600482015230906001600160a01b0384169063081812fc9060240160206040518083038186803b15801561062b57600080fd5b505afa15801561063f573d6000803e3d6000fd5b505050506040513d601f19601f820116820180604052508101906106639190611fcf565b6001600160a01b0316145b61068a5760405162461bcd60e51b815260040161034490612414565b6001600160a01b0382166323b872dd6106a96040890160208a01611fb3565b6106b66020890189611fb3565b89608001356040518463ffffffff1660e01b81526004016106d993929190612279565b600060405180830381600087803b1580156106f357600080fd5b505af1158015610707573d6000803e3d6000fd5b5050505085608001359050610979565b6001600160a01b0382166398f3c3256107366040890160208a01611fb3565b61074660c08a0160a08b016121ed565b6107546101008b018b6124a9565b6040518563ffffffff1660e01b8152600401610773949392919061229d565b602060405180830381600087803b15801561078d57600080fd5b505af11580156107a1573d6000803e3d6000fd5b505050506040513d601f19601f820116820180604052508101906107c591906121d5565b90506001600160a01b03821663e985e9c56107e66040890160208a01611fb3565b306040518363ffffffff1660e01b815260040161080492919061225f565b60206040518083038186803b15801561081c57600080fd5b505afa158015610830573d6000803e3d6000fd5b505050506040513d601f19601f820116820180604052508101906108549190612018565b806108df575060405163020604bf60e21b81526004810182905230906001600160a01b0384169063081812fc9060240160206040518083038186803b15801561089c57600080fd5b505afa1580156108b0573d6000803e3d6000fd5b505050506040513d601f19601f820116820180604052508101906108d49190611fcf565b6001600160a01b0316145b6108fb5760405162461bcd60e51b815260040161034490612414565b6001600160a01b0382166323b872dd61091a6040890160208a01611fb3565b6109276020890189611fb3565b846040518463ffffffff1660e01b815260040161094693929190612279565b600060405180830381600087803b15801561096057600080fd5b505af1158015610974573d6000803e3d6000fd5b505050505b600061098b6080880160608901611fb3565b9050602086018035906001600160a01b038316906370a08231906109af908a611fb3565b6040516001600160e01b031960e084901b1681526001600160a01b03909116600482015260240160206040518083038186803b1580156109ee57600080fd5b505afa158015610a02573d6000803e3d6000fd5b505050506040513d601f19601f82011682018060405250810190610a2691906121d5565b1015610a745760405162461bcd60e51b815260206004820152601c60248201527f4d61726b6574506c6163653a20496e7375666963656e742066756e64000000006044820152606401610344565b604051636eb1769f60e11b815260c0880135906001600160a01b0383169063dd62ed3e90610aa8903390309060040161225f565b60206040518083038186803b158015610ac057600080fd5b505afa158015610ad4573d6000803e3d6000fd5b505050506040513d601f19601f82011682018060405250810190610af891906121d5565b1015610b165760405162461bcd60e51b815260040161034490612382565b6000610b3d612710610b376065548a60200135611de490919063ffffffff16565b90611df0565b90506001600160a01b0382166323b872dd610b5b60208a018a611fb3565b30846040518463ffffffff1660e01b8152600401610b7b93929190612279565b602060405180830381600087803b158015610b9557600080fd5b505af1158015610ba9573d6000803e3d6000fd5b505050506040513d601f19601f82011682018060405250810190610bcd9190612018565b506000610be060608a0160408b01611fb3565b60405163152a902d60e11b81526004810186905260208a0135602482015290915060009081906001600160a01b03841690632a55205a90604401604080518083038186803b158015610c3157600080fd5b505afa158015610c45573d6000803e3d6000fd5b505050506040513d601f19601f82011682018060405250810190610c699190611feb565b90925090506020808b013590600090610c889060408f01908f01611fb3565b90508215610d5757836001600160a01b03168d6020016020810190610cad9190611fb3565b6001600160a01b031614610d57576001600160a01b0387166323b872dd610cd760208f018f611fb3565b86866040518463ffffffff1660e01b8152600401610cf793929190612279565b602060405180830381600087803b158015610d1157600080fd5b505af1158015610d25573d6000803e3d6000fd5b505050506040513d601f19601f82011682018060405250810190610d499190612018565b50610d5483836124fe565b91505b610d6186836124fe565b91506001600160a01b0387166323b872dd610d7f60208f018f611fb3565b83856040518463ffffffff1660e01b8152600401610d9f93929190612279565b602060405180830381600087803b158015610db957600080fd5b505af1158015610dcd573d6000803e3d6000fd5b505050506040513d601f19601f82011682018060405250810190610df19190612018565b506001606760008f60000135815260200190815260200160002060006101000a81548160ff0219169083151502179055507f302ffae8787300a79a463da1fa37f941396b40dea9b4378919fec3a51c6d2663888e6040016020810190610e579190611fb3565b8f60c001358f6000016020810190610e6f9190611fb3565b604080519485526001600160a01b039384166020860152840191909152811660608301528316608082015260a00160405180910390a1604080516101208f013581526101408f013560208201527f5ed853b3fa177268605ccb81c77580a12da96f52f3be3b8266186a0b2a11f659910160405180910390a150505050505050505050505050565b60665460405163e025120d60e01b81523360048201526001600160a01b039091169063e025120d9060240160206040518083038186803b158015610f3957600080fd5b505afa158015610f4d573d6000803e3d6000fd5b505050506040513d601f19601f82011682018060405250810190610f719190612018565b610fbd5760405162461bcd60e51b815260206004820181905260248201527f4d61726b6574506c6163653a207573657220697320626c61636b6c69737465646044820152606401610344565b803560009081526067602052604090205460ff1615610fee5760405162461bcd60e51b815260040161034490612340565b336000610ffa83611c2d565b90506001600160a01b0381166110166040850160208601611fb3565b6001600160a01b03161461103c5760405162461bcd60e51b8152600401610344906122ed565b600061104e6060850160408601611fb3565b90506001600160a01b03811663e985e9c561106f6040870160208801611fb3565b306040518363ffffffff1660e01b815260040161108d92919061225f565b60206040518083038186803b1580156110a557600080fd5b505afa1580156110b9573d6000803e3d6000fd5b505050506040513d601f19601f820116820180604052508101906110dd9190612018565b6111295760405162461bcd60e51b815260206004820181905260248201527f4d61726b6574506c6163653a2061646472657373206e6f7420617070726f76656044820152606401610344565b60006080850135156112ed576001600160a01b03821663e985e9c56111546040880160208901611fb3565b306040518363ffffffff1660e01b815260040161117292919061225f565b60206040518083038186803b15801561118a57600080fd5b505afa15801561119e573d6000803e3d6000fd5b505050506040513d601f19601f820116820180604052508101906111c29190612018565b80611250575060405163020604bf60e21b81526080860135600482015230906001600160a01b0384169063081812fc9060240160206040518083038186803b15801561120d57600080fd5b505afa158015611221573d6000803e3d6000fd5b505050506040513d601f19601f820116820180604052508101906112459190611fcf565b6001600160a01b0316145b61126c5760405162461bcd60e51b815260040161034490612414565b6001600160a01b0382166323b872dd61128b6040880160208901611fb3565b8688608001356040518463ffffffff1660e01b81526004016112af93929190612279565b600060405180830381600087803b1580156112c957600080fd5b505af11580156112dd573d6000803e3d6000fd5b5050505084608001359050611543565b6001600160a01b0382166398f3c32561130c6040880160208901611fb3565b61131c60c0890160a08a016121ed565b61132a6101008a018a6124a9565b6040518563ffffffff1660e01b8152600401611349949392919061229d565b602060405180830381600087803b15801561136357600080fd5b505af1158015611377573d6000803e3d6000fd5b505050506040513d601f19601f8201168201806040525081019061139b91906121d5565b90506001600160a01b03821663e985e9c56113bc6040880160208901611fb3565b306040518363ffffffff1660e01b81526004016113da92919061225f565b60206040518083038186803b1580156113f257600080fd5b505afa158015611406573d6000803e3d6000fd5b505050506040513d601f19601f8201168201806040525081019061142a9190612018565b806114b5575060405163020604bf60e21b81526004810182905230906001600160a01b0384169063081812fc9060240160206040518083038186803b15801561147257600080fd5b505afa158015611486573d6000803e3d6000fd5b505050506040513d601f19601f820116820180604052508101906114aa9190611fcf565b6001600160a01b0316145b6114d15760405162461bcd60e51b815260040161034490612414565b6001600160a01b0382166323b872dd6114f06040880160208901611fb3565b86846040518463ffffffff1660e01b815260040161151093929190612279565b600060405180830381600087803b15801561152a57600080fd5b505af115801561153e573d6000803e3d6000fd5b505050505b60006115556080870160608801611fb3565b6040516370a0823160e01b81526001600160a01b03878116600483015291925060c0880135918316906370a082319060240160206040518083038186803b15801561159f57600080fd5b505afa1580156115b3573d6000803e3d6000fd5b505050506040513d601f19601f820116820180604052508101906115d791906121d5565b10156116255760405162461bcd60e51b815260206004820181905260248201527f4d61726b6574506c6163653a20496e73756666696369656e7420416d6f756e746044820152606401610344565b604051636eb1769f60e11b815260c0870135906001600160a01b0383169063dd62ed3e90611659903390309060040161225f565b60206040518083038186803b15801561167157600080fd5b505afa158015611685573d6000803e3d6000fd5b505050506040513d601f19601f820116820180604052508101906116a991906121d5565b10156116c75760405162461bcd60e51b815260040161034490612382565b60006116ec6064610b376064610b376065548c60c00135611de490919063ffffffff16565b6040516323b872dd60e01b81529091506001600160a01b038316906323b872dd9061171f90899030908690600401612279565b602060405180830381600087803b15801561173957600080fd5b505af115801561174d573d6000803e3d6000fd5b505050506040513d601f19601f820116820180604052508101906117719190612018565b5060006117846060890160408a01611fb3565b60405163152a902d60e11b81526004810186905260c08a0135602482015290915060009081906001600160a01b03841690632a55205a90604401604080518083038186803b1580156117d557600080fd5b505afa1580156117e9573d6000803e3d6000fd5b505050506040513d601f19601f8201168201806040525081019061180d9190611feb565b909250905060c08a013581156118d5576001600160a01b03831661183760408d0160208e01611fb3565b6001600160a01b0316146118d5576040516323b872dd60e01b81526001600160a01b038716906323b872dd90611875908d9087908790600401612279565b602060405180830381600087803b15801561188f57600080fd5b505af11580156118a3573d6000803e3d6000fd5b505050506040513d601f19601f820116820180604052508101906118c79190612018565b506118d282826124fe565b90505b6118df85826124fe565b9050856001600160a01b03166323b872dd8b8d60200160208101906119049190611fb3565b846040518463ffffffff1660e01b815260040161192393929190612279565b602060405180830381600087803b15801561193d57600080fd5b505af1158015611951573d6000803e3d6000fd5b505050506040513d601f19601f820116820180604052508101906119759190612018565b508a35600081815260676020908152604091829020805460ff191660011790557f614ea25d320bad8790c8682a33682434592da32d9816f8eca2e4cba3dd36518b92916119c791908f01908f01611fb3565b8c8e60600160208101906119db9190611fb3565b604080519485526001600160a01b039384166020860152918316848301529091166060830152608082018a9052519081900360a00190a15050505050505050505050565b611a27611dfc565b611a316000611e56565b565b611a3b611dfc565b606555565b600080611a506020840184611fb3565b6040516bffffffffffffffffffffffff19606092831b16602082810191909152850135603482015290840135605482015260808401356074820152609401604051602081830303815290604052805190602001209050611af481848060400190611aba919061245d565b8080601f016020809104026020016040519081016040528093929190818152602001838380828437600092019190915250611d2492505050565b9392505050565b600054610100900460ff1615808015611b1b5750600054600160ff909116105b80611b355750303b158015611b35575060005460ff166001145b611b985760405162461bcd60e51b815260206004820152602e60248201527f496e697469616c697a61626c653a20636f6e747261637420697320616c72656160448201526d191e481a5b9a5d1a585b1a5e995960921b6064820152608401610344565b6000805460ff191660011790558015611bbb576000805461ff0019166101001790555b611bc3611ea8565b60fa606555606680546001600160a01b0319166001600160a01b0384161790558015611c29576000805461ff0019169055604051600181527f7f26b83ff96e1f2b6a682f133852f6798a09c465da95921460cefb38474024989060200160405180910390a15b5050565b600080611c406060840160408501611fb3565b6080840135611c536101008601866124a9565b611c636080880160608901611fb3565b604051611c8095949392919060c08a0135908a3590602001612214565b60408051601f1981840301815291905280516020909101209050611af481611aba60e086018661245d565b611cb3611dfc565b6001600160a01b038116611d185760405162461bcd60e51b815260206004820152602660248201527f4f776e61626c653a206e6577206f776e657220697320746865207a65726f206160448201526564647265737360d01b6064820152608401610344565b611d2181611e56565b50565b600080600080611d3385611ed7565b6040517f19457468657265756d205369676e6564204d6573736167653a0a3332000000006020820152603c81018a90529295509093509150600190605c0160408051601f198184030181528282528051602091820120600084529083018083525260ff841690820152606081018590526080810184905260a0016020604051602081039080840390855afa158015611dcf573d6000803e3d6000fd5b5050604051601f190151979650505050505050565b6000611af482846124df565b6000611af482846124bf565b6033546001600160a01b03163314611a315760405162461bcd60e51b815260206004820181905260248201527f4f776e61626c653a2063616c6c6572206973206e6f7420746865206f776e65726044820152606401610344565b603380546001600160a01b038381166001600160a01b0319831681179093556040519116919082907f8be0079c531659141344cd1fd0a4f28419497f9722a3daafe3b4186f6b6457e090600090a35050565b600054610100900460ff16611ecf5760405162461bcd60e51b8152600401610344906123c9565b611a31611f5a565b60008060008351604114611f3c5760405162461bcd60e51b815260206004820152602660248201527f4d61726b6574506c6163653a20696e76616c6964207369676e6174757265206c60448201526532b733ba341760d11b6064820152608401610344565b50505060208101516040820151606090920151909260009190911a90565b600054610100900460ff16611f815760405162461bcd60e51b8152600401610344906123c9565b611a3133611e56565b60006101608284031215611f9c578081fd5b50919050565b600060a08284031215611f9c578081fd5b600060208284031215611fc4578081fd5b8135611af481612541565b600060208284031215611fe0578081fd5b8151611af481612541565b60008060408385031215611ffd578081fd5b825161200881612541565b6020939093015192949293505050565b600060208284031215612029578081fd5b81518015158114611af4578182fd5b6000806040838503121561204a578182fd5b82359150602083013567ffffffffffffffff80821115612068578283fd5b818501915085601f83011261207b578283fd5b81358181111561208d5761208d61252b565b604051601f8201601f19908116603f011681019083821181831017156120b5576120b561252b565b816040528281528860208487010111156120cd578586fd5b82602086016020830137856020848301015280955050505050509250929050565b6000602082840312156120ff578081fd5b813567ffffffffffffffff811115612115578182fd5b61212184828501611f8a565b949350505050565b6000806040838503121561213b578182fd5b823567ffffffffffffffff80821115612152578384fd5b61215e86838701611f8a565b93506020850135915080821115612173578283fd5b5061218085828601611fa2565b9150509250929050565b60006020828403121561219b578081fd5b813567ffffffffffffffff8111156121b1578182fd5b61212184828501611fa2565b6000602082840312156121ce578081fd5b5035919050565b6000602082840312156121e6578081fd5b5051919050565b6000602082840312156121fe578081fd5b81356001600160601b0381168114611af4578182fd5b60006001600160601b0319808a60601b1683528860148401528688603485013760609590951b9094169401603481019490945260488401919091526068830152506088019392505050565b6001600160a01b0392831681529116602082015260400190565b6001600160a01b039384168152919092166020820152604081019190915260600190565b6001600160a01b03851681526001600160601b03841660208201526060604082018190528101829052818360808301376000818301608090810191909152601f909201601f191601019392505050565b60208082526033908201527f4d61726b6574506c6163653a2073656c6c657241646472657373207369676e206040820152721d995c9a599a58d85d1a5bdb8819985a5b1959606a1b606082015260800190565b60208082526022908201527f4d61726b6574506c6163653a206e6f6e636520616c72656164792070726f6365604082015261737360f01b606082015260800190565b60208082526027908201527f4d61726b6574506c6163653a20436865636b2074686520746f6b656e20616c6c60408201526637bbb0b731b29760c91b606082015260800190565b6020808252602b908201527f496e697469616c697a61626c653a20636f6e7472616374206973206e6f74206960408201526a6e697469616c697a696e6760a81b606082015260800190565b60208082526029908201527f4d61726b6574506c6163653a20436f6c6c656374696f6e206d7573742062652060408201526830b8383937bb32b21760b91b606082015260800190565b6000808335601e19843603018112612473578283fd5b83018035915067ffffffffffffffff82111561248d578283fd5b6020019150368190038213156124a257600080fd5b9250929050565b6000808335601e19843603018112612473578182fd5b6000826124da57634e487b7160e01b81526012600452602481fd5b500490565b60008160001904831182151516156124f9576124f9612515565b500290565b60008282101561251057612510612515565b500390565b634e487b7160e01b600052601160045260246000fd5b634e487b7160e01b600052604160045260246000fd5b6001600160a01b0381168114611d2157600080fdfea2646970667358221220eb7d02a0d1a8980c524cc4ffc6a13ad2149ad7aef2f8840ad013aa3d4680c0bb64736f6c63430008040033",
  "linkReferences": {},
  "deployedLinkReferences": {}
}