{
  "_format": "hh-sol-artifact-1",
  "contractName": "MarketPlace",
  "sourceName": "contracts/MarketPlace.sol",
  "abi": [
    {
      "anonymous": false,
      "inputs": [
        {
          "indexed": false,
          "internalType": "uint8",
          "name": "version",
          "type": "uint8"
        }
      ],
      "name": "Initialized",
      "type": "event"
    },
    {
      "anonymous": false,
      "inputs": [
        {
          "indexed": true,
          "internalType": "address",
          "name": "previousOwner",
          "type": "address"
        },
        {
          "indexed": true,
          "internalType": "address",
          "name": "newOwner",
          "type": "address"
        }
      ],
      "name": "OwnershipTransferred",
      "type": "event"
    },
    {
      "anonymous": false,
      "inputs": [
        {
          "indexed": false,
          "internalType": "uint256",
          "name": "tokenId",
          "type": "uint256"
        },
        {
          "indexed": false,
          "internalType": "address",
          "name": "nftAddress",
          "type": "address"
        },
        {
          "indexed": false,
          "internalType": "uint256",
          "name": "amount",
          "type": "uint256"
        },
        {
          "indexed": false,
          "internalType": "address",
          "name": "winner",
          "type": "address"
        },
        {
          "indexed": false,
          "internalType": "address",
          "name": "sellerAddress",
          "type": "address"
        }
      ],
      "name": "lazy_Auction",
      "type": "event"
    },
    {
      "anonymous": false,
      "inputs": [
        {
          "indexed": false,
          "internalType": "uint256",
          "name": "startTime",
          "type": "uint256"
        },
        {
          "indexed": false,
          "internalType": "uint256",
          "name": "endTime",
          "type": "uint256"
        }
      ],
      "name": "lazy_Auction_duration",
      "type": "event"
    },
    {
      "anonymous": false,
      "inputs": [
        {
          "indexed": false,
          "internalType": "uint256",
          "name": "nonce",
          "type": "uint256"
        },
        {
          "indexed": false,
          "internalType": "address",
          "name": "seller",
          "type": "address"
        },
        {
          "indexed": false,
          "internalType": "address",
          "name": "buyer",
          "type": "address"
        },
        {
          "indexed": false,
          "internalType": "address",
          "name": "assetAddress",
          "type": "address"
        },
        {
          "indexed": false,
          "internalType": "uint256",
          "name": "tokenId",
          "type": "uint256"
        }
      ],
      "name": "lazybuy",
      "type": "event"
    },
    {
      "stateMutability": "payable",
      "type": "fallback"
    },
    {
      "inputs": [
        {
          "components": [
            {
              "internalType": "uint256",
              "name": "nonce",
              "type": "uint256"
            },
            {
              "internalType": "address",
              "name": "sellerAddress",
              "type": "address"
            },
            {
              "internalType": "address",
              "name": "nftAddress",
              "type": "address"
            },
            {
              "internalType": "address",
              "name": "paymentAssetAddress",
              "type": "address"
            },
            {
              "internalType": "uint256",
              "name": "tokenId",
              "type": "uint256"
            },
            {
              "internalType": "uint96",
              "name": "royality",
              "type": "uint96"
            },
            {
              "internalType": "uint256",
              "name": "amount",
              "type": "uint256"
            },
            {
              "internalType": "bytes",
              "name": "sellerSignature",
              "type": "bytes"
            },
            {
              "internalType": "string",
              "name": "tokenUri",
              "type": "string"
            },
            {
              "internalType": "uint256",
              "name": "startTime",
              "type": "uint256"
            },
            {
              "internalType": "uint256",
              "name": "endTime",
              "type": "uint256"
            }
          ],
          "internalType": "struct MarketPlace.SellerDetails",
          "name": "seller",
          "type": "tuple"
        }
      ],
      "name": "LazyBuy",
      "outputs": [],
      "stateMutability": "nonpayable",
      "type": "function"
    },
    {
      "inputs": [],
      "name": "decimalPrecision",
      "outputs": [
        {
          "internalType": "uint256",
          "name": "",
          "type": "uint256"
        }
      ],
      "stateMutability": "view",
      "type": "function"
    },
    {
      "inputs": [
        {
          "internalType": "bytes32",
          "name": "hash",
          "type": "bytes32"
        },
        {
          "internalType": "bytes",
          "name": "_signature",
          "type": "bytes"
        }
      ],
      "name": "getSigner",
      "outputs": [
        {
          "internalType": "address",
          "name": "",
          "type": "address"
        }
      ],
      "stateMutability": "pure",
      "type": "function"
    },
    {
      "inputs": [
        {
          "internalType": "contract IblackList",
          "name": "_blacklistAddress",
          "type": "address"
        }
      ],
      "name": "initialize",
      "outputs": [],
      "stateMutability": "nonpayable",
      "type": "function"
    },
    {
      "inputs": [
        {
          "internalType": "uint256",
          "name": "",
          "type": "uint256"
        }
      ],
      "name": "isNonceProcessed",
      "outputs": [
        {
          "internalType": "bool",
          "name": "",
          "type": "bool"
        }
      ],
      "stateMutability": "view",
      "type": "function"
    },
    {
      "inputs": [
        {
          "components": [
            {
              "internalType": "uint256",
              "name": "nonce",
              "type": "uint256"
            },
            {
              "internalType": "address",
              "name": "sellerAddress",
              "type": "address"
            },
            {
              "internalType": "address",
              "name": "nftAddress",
              "type": "address"
            },
            {
              "internalType": "address",
              "name": "paymentAssetAddress",
              "type": "address"
            },
            {
              "internalType": "uint256",
              "name": "tokenId",
              "type": "uint256"
            },
            {
              "internalType": "uint96",
              "name": "royality",
              "type": "uint96"
            },
            {
              "internalType": "uint256",
              "name": "amount",
              "type": "uint256"
            },
            {
              "internalType": "bytes",
              "name": "sellerSignature",
              "type": "bytes"
            },
            {
              "internalType": "string",
              "name": "tokenUri",
              "type": "string"
            },
            {
              "internalType": "uint256",
              "name": "startTime",
              "type": "uint256"
            },
            {
              "internalType": "uint256",
              "name": "endTime",
              "type": "uint256"
            }
          ],
          "internalType": "struct MarketPlace.SellerDetails",
          "name": "sellerDetails",
          "type": "tuple"
        },
        {
          "components": [
            {
              "internalType": "address",
              "name": "winnerAddress",
              "type": "address"
            },
            {
              "internalType": "uint256",
              "name": "amount",
              "type": "uint256"
            },
            {
              "internalType": "bytes",
              "name": "winnerSignature",
              "type": "bytes"
            },
            {
              "internalType": "uint256",
              "name": "bidTime",
              "type": "uint256"
            },
            {
              "internalType": "uint256",
              "name": "nonce",
              "type": "uint256"
            }
          ],
          "internalType": "struct MarketPlace.WinnerDetails",
          "name": "winnerDetails",
          "type": "tuple"
        }
      ],
      "name": "lazyAuction",
      "outputs": [],
      "stateMutability": "nonpayable",
      "type": "function"
    },
    {
      "inputs": [],
      "name": "owner",
      "outputs": [
        {
          "internalType": "address",
          "name": "",
          "type": "address"
        }
      ],
      "stateMutability": "view",
      "type": "function"
    },
    {
      "inputs": [],
      "name": "platFormFeePercent",
      "outputs": [
        {
          "internalType": "uint256",
          "name": "",
          "type": "uint256"
        }
      ],
      "stateMutability": "view",
      "type": "function"
    },
    {
      "inputs": [],
      "name": "renounceOwnership",
      "outputs": [],
      "stateMutability": "nonpayable",
      "type": "function"
    },
    {
      "inputs": [
        {
          "internalType": "uint256",
          "name": "_newPlatFormFeePercent",
          "type": "uint256"
        }
      ],
      "name": "setPlatFormFeePercent",
      "outputs": [],
      "stateMutability": "nonpayable",
      "type": "function"
    },
    {
      "inputs": [
        {
          "internalType": "address",
          "name": "newOwner",
          "type": "address"
        }
      ],
      "name": "transferOwnership",
      "outputs": [],
      "stateMutability": "nonpayable",
      "type": "function"
    },
    {
      "inputs": [
        {
          "components": [
            {
              "internalType": "uint256",
              "name": "nonce",
              "type": "uint256"
            },
            {
              "internalType": "address",
              "name": "sellerAddress",
              "type": "address"
            },
            {
              "internalType": "address",
              "name": "nftAddress",
              "type": "address"
            },
            {
              "internalType": "address",
              "name": "paymentAssetAddress",
              "type": "address"
            },
            {
              "internalType": "uint256",
              "name": "tokenId",
              "type": "uint256"
            },
            {
              "internalType": "uint96",
              "name": "royality",
              "type": "uint96"
            },
            {
              "internalType": "uint256",
              "name": "amount",
              "type": "uint256"
            },
            {
              "internalType": "bytes",
              "name": "sellerSignature",
              "type": "bytes"
            },
            {
              "internalType": "string",
              "name": "tokenUri",
              "type": "string"
            },
            {
              "internalType": "uint256",
              "name": "startTime",
              "type": "uint256"
            },
            {
              "internalType": "uint256",
              "name": "endTime",
              "type": "uint256"
            }
          ],
          "internalType": "struct MarketPlace.SellerDetails",
          "name": "sellerDetails",
          "type": "tuple"
        }
      ],
      "name": "verifySellerSign",
      "outputs": [
        {
          "internalType": "address",
          "name": "",
          "type": "address"
        }
      ],
      "stateMutability": "pure",
      "type": "function"
    },
    {
      "inputs": [
        {
          "components": [
            {
              "internalType": "address",
              "name": "winnerAddress",
              "type": "address"
            },
            {
              "internalType": "uint256",
              "name": "amount",
              "type": "uint256"
            },
            {
              "internalType": "bytes",
              "name": "winnerSignature",
              "type": "bytes"
            },
            {
              "internalType": "uint256",
              "name": "bidTime",
              "type": "uint256"
            },
            {
              "internalType": "uint256",
              "name": "nonce",
              "type": "uint256"
            }
          ],
          "internalType": "struct MarketPlace.WinnerDetails",
          "name": "winnerDetails",
          "type": "tuple"
        }
      ],
      "name": "verifyWinnerSign",
      "outputs": [
        {
          "internalType": "address",
          "name": "",
          "type": "address"
        }
      ],
      "stateMutability": "pure",
      "type": "function"
    },
    {
      "stateMutability": "payable",
      "type": "receive"
    }
  ],
  "bytecode": "0x608060405234801561001057600080fd5b506121d9806100206000396000f3fe6080604052600436106100bd5760003560e01c80638da5cb5b11610079578063c4efa66511610056578063c4efa66514610216578063d0b684b61461022b578063f2fde38b1461024b578063f7b2ec0d1461026b57005b80638da5cb5b146101a4578063b4ffc2bf146101d6578063c4d66de8146101f657005b806302525e1b146100c657806320b3860b146100e65780636b3f4b3f14610106578063715018a61461014b578063815a1e4e146101605780638439807c1461018457005b366100c457005b005b3480156100d257600080fd5b506100c46100e1366004611d90565b61028b565b3480156100f257600080fd5b506100c4610101366004611d55565b610c14565b34801561011257600080fd5b50610136610121366004611e24565b60676020526000908152604090205460ff1681565b60405190151581526020015b60405180910390f35b34801561015757600080fd5b506100c4611686565b34801561016c57600080fd5b5061017660655481565b604051908152602001610142565b34801561019057600080fd5b506100c461019f366004611e24565b61169a565b3480156101b057600080fd5b506033546001600160a01b03165b6040516001600160a01b039091168152602001610142565b3480156101e257600080fd5b506101be6101f1366004611df1565b6116a7565b34801561020257600080fd5b506100c4610211366004611c1a565b611762565b34801561022257600080fd5b50610176606481565b34801561023757600080fd5b506101be610246366004611d55565b611894565b34801561025757600080fd5b506100c4610266366004611c1a565b611912565b34801561027757600080fd5b506101be610286366004611c9f565b61198b565b60665460405163e025120d60e01b81523360048201526001600160a01b039091169063e025120d9060240160206040518083038186803b1580156102ce57600080fd5b505afa1580156102e2573d6000803e3d6000fd5b505050506040513d601f19601f820116820180604052508101906103069190611c7f565b61034d5760405162461bcd60e51b81526020600482015260136024820152721d5cd95c881a5cc8189b1858dadb1a5cdd1959606a1b60448201526064015b60405180910390fd5b813560009081526067602052604090205460ff161561037e5760405162461bcd60e51b815260040161034490611f8d565b600061038983611894565b90506001600160a01b0381166103a56040850160208601611c1a565b6001600160a01b0316146103cb5760405162461bcd60e51b815260040161034490611f3a565b60006103d6836116a7565b90506001600160a01b0381166103ef6020850185611c1a565b6001600160a01b03161461045a5760405162461bcd60e51b815260206004820152602c60248201527f4d61726b6574506c6163653a2077696e6e6572207369676e207665726966696360448201526b185d1a5bdb8819985a5b195960a21b6064820152608401610344565b600061046c6060860160408701611c1a565b90506001600160a01b03811663e985e9c561048d6040880160208901611c1a565b6040516001600160e01b031960e084901b1681526001600160a01b03909116600482015230602482015260440160206040518083038186803b1580156104d257600080fd5b505afa1580156104e6573d6000803e3d6000fd5b505050506040513d601f19601f8201168201806040525081019061050a9190611c7f565b6105565760405162461bcd60e51b815260206004820181905260248201527f4d61726b6574506c6163653a2061646472657373206e6f7420617070726f76656044820152606401610344565b60808501356001811415610615576001600160a01b0382166398f3c3256105836040890160208a01611c1a565b61059360c08a0160a08b01611e54565b6105a16101008b018b6120f6565b6040518563ffffffff1660e01b81526004016105c09493929190611eea565b602060405180830381600087803b1580156105da57600080fd5b505af11580156105ee573d6000803e3d6000fd5b505050506040513d601f19601f820116820180604052508101906106129190611e3c565b90505b6001600160a01b0382166323b872dd6106346040890160208a01611c1a565b6106416020890189611c1a565b846040518463ffffffff1660e01b815260040161066093929190611ec6565b600060405180830381600087803b15801561067a57600080fd5b505af115801561068e573d6000803e3d6000fd5b50600092506106a69150506080880160608901611c1a565b9050602086018035906001600160a01b038316906370a08231906106ca908a611c1a565b6040516001600160e01b031960e084901b1681526001600160a01b03909116600482015260240160206040518083038186803b15801561070957600080fd5b505afa15801561071d573d6000803e3d6000fd5b505050506040513d601f19601f820116820180604052508101906107419190611e3c565b101561078f5760405162461bcd60e51b815260206004820152601c60248201527f4d61726b6574506c6163653a20496e7375666963656e742066756e64000000006044820152606401610344565b604051636eb1769f60e11b815233600482015230602482015260c0880135906001600160a01b0383169063dd62ed3e9060440160206040518083038186803b1580156107da57600080fd5b505afa1580156107ee573d6000803e3d6000fd5b505050506040513d601f19601f820116820180604052508101906108129190611e3c565b10156108305760405162461bcd60e51b815260040161034490611fcf565b60006108576127106108516065548a60200135611a4b90919063ffffffff16565b90611a57565b90506001600160a01b0382166323b872dd61087560208a018a611c1a565b30846040518463ffffffff1660e01b815260040161089593929190611ec6565b602060405180830381600087803b1580156108af57600080fd5b505af11580156108c3573d6000803e3d6000fd5b505050506040513d601f19601f820116820180604052508101906108e79190611c7f565b5060006108fa60608a0160408b01611c1a565b60405163152a902d60e11b81526004810186905260208a0135602482015290915060009081906001600160a01b03841690632a55205a90604401604080518083038186803b15801561094b57600080fd5b505afa15801561095f573d6000803e3d6000fd5b505050506040513d601f19601f820116820180604052508101906109839190611c52565b90925090506020808b0135906000906109a29060408f01908f01611c1a565b90508215610a7157836001600160a01b03168d60200160208101906109c79190611c1a565b6001600160a01b031614610a71576001600160a01b0387166323b872dd6109f160208f018f611c1a565b86866040518463ffffffff1660e01b8152600401610a1193929190611ec6565b602060405180830381600087803b158015610a2b57600080fd5b505af1158015610a3f573d6000803e3d6000fd5b505050506040513d601f19601f82011682018060405250810190610a639190611c7f565b50610a6e838361214b565b91505b610a7b868361214b565b91506001600160a01b0387166323b872dd610a9960208f018f611c1a565b83856040518463ffffffff1660e01b8152600401610ab993929190611ec6565b602060405180830381600087803b158015610ad357600080fd5b505af1158015610ae7573d6000803e3d6000fd5b505050506040513d601f19601f82011682018060405250810190610b0b9190611c7f565b506001606760008f60000135815260200190815260200160002060006101000a81548160ff0219169083151502179055507f302ffae8787300a79a463da1fa37f941396b40dea9b4378919fec3a51c6d26638d608001358e6040016020810190610b759190611c1a565b8f60c001358f6000016020810190610b8d9190611c1a565b604080519485526001600160a01b039384166020860152840191909152811660608301528316608082015260a00160405180910390a1604080516101208f013581526101408f013560208201527f5ed853b3fa177268605ccb81c77580a12da96f52f3be3b8266186a0b2a11f659910160405180910390a150505050505050505050505050565b60665460405163e025120d60e01b81523360048201526001600160a01b039091169063e025120d9060240160206040518083038186803b158015610c5757600080fd5b505afa158015610c6b573d6000803e3d6000fd5b505050506040513d601f19601f82011682018060405250810190610c8f9190611c7f565b610cdb5760405162461bcd60e51b815260206004820181905260248201527f4d61726b6574506c6163653a207573657220697320626c61636b6c69737465646044820152606401610344565b803560009081526067602052604090205460ff1615610d0c5760405162461bcd60e51b815260040161034490611f8d565b336000610d1883611894565b90506001600160a01b038116610d346040850160208601611c1a565b6001600160a01b031614610d5a5760405162461bcd60e51b815260040161034490611f3a565b6000610d6c6060850160408601611c1a565b90508360800135600114610f3a576001600160a01b03811663e985e9c5610d996040870160208801611c1a565b6040516001600160e01b031960e084901b1681526001600160a01b03909116600482015230602482015260440160206040518083038186803b158015610dde57600080fd5b505afa158015610df2573d6000803e3d6000fd5b505050506040513d601f19601f82011682018060405250810190610e169190611c7f565b80610ea4575060405163020604bf60e21b81526080850135600482015230906001600160a01b0383169063081812fc9060240160206040518083038186803b158015610e6157600080fd5b505afa158015610e75573d6000803e3d6000fd5b505050506040513d601f19601f82011682018060405250810190610e999190611c36565b6001600160a01b0316145b610ec05760405162461bcd60e51b815260040161034490612061565b6001600160a01b0381166323b872dd610edf6040870160208801611c1a565b8587608001356040518463ffffffff1660e01b8152600401610f0393929190611ec6565b600060405180830381600087803b158015610f1d57600080fd5b505af1158015610f31573d6000803e3d6000fd5b505050506111a6565b60006001600160a01b0382166398f3c325610f5b6040880160208901611c1a565b610f6b60c0890160a08a01611e54565b610f796101008a018a6120f6565b6040518563ffffffff1660e01b8152600401610f989493929190611eea565b602060405180830381600087803b158015610fb257600080fd5b505af1158015610fc6573d6000803e3d6000fd5b505050506040513d601f19601f82011682018060405250810190610fea9190611e3c565b90506001600160a01b03821663e985e9c561100b6040880160208901611c1a565b6040516001600160e01b031960e084901b1681526001600160a01b03909116600482015230602482015260440160206040518083038186803b15801561105057600080fd5b505afa158015611064573d6000803e3d6000fd5b505050506040513d601f19601f820116820180604052508101906110889190611c7f565b80611113575060405163020604bf60e21b81526004810182905230906001600160a01b0384169063081812fc9060240160206040518083038186803b1580156110d057600080fd5b505afa1580156110e4573d6000803e3d6000fd5b505050506040513d601f19601f820116820180604052508101906111089190611c36565b6001600160a01b0316145b61112f5760405162461bcd60e51b815260040161034490612061565b6001600160a01b0382166323b872dd61114e6040880160208901611c1a565b8688608001356040518463ffffffff1660e01b815260040161117293929190611ec6565b600060405180830381600087803b15801561118c57600080fd5b505af11580156111a0573d6000803e3d6000fd5b50505050505b60006111b86080860160608701611c1a565b6040516370a0823160e01b81526001600160a01b03868116600483015291925060c0870135918316906370a082319060240160206040518083038186803b15801561120257600080fd5b505afa158015611216573d6000803e3d6000fd5b505050506040513d601f19601f8201168201806040525081019061123a9190611e3c565b10156112885760405162461bcd60e51b815260206004820181905260248201527f4d61726b6574506c6163653a20496e73756666696369656e7420416d6f756e746044820152606401610344565b604051636eb1769f60e11b81526001600160a01b03858116600483015230602483015260c0870135919083169063dd62ed3e9060440160206040518083038186803b1580156112d657600080fd5b505afa1580156112ea573d6000803e3d6000fd5b505050506040513d601f19601f8201168201806040525081019061130e9190611e3c565b101561132c5760405162461bcd60e51b815260040161034490611fcf565b6000611351606461085160646108516065548b60c00135611a4b90919063ffffffff16565b6040516323b872dd60e01b81529091506001600160a01b038316906323b872dd9061138490889030908690600401611ec6565b602060405180830381600087803b15801561139e57600080fd5b505af11580156113b2573d6000803e3d6000fd5b505050506040513d601f19601f820116820180604052508101906113d69190611c7f565b5060006113e96060880160408901611c1a565b60405163152a902d60e11b81526080890135600482015260c0890135602482015290915060009081906001600160a01b03841690632a55205a90604401604080518083038186803b15801561143d57600080fd5b505afa158015611451573d6000803e3d6000fd5b505050506040513d601f19601f820116820180604052508101906114759190611c52565b909250905060c0890135811561153d576001600160a01b03831661149f60408c0160208d01611c1a565b6001600160a01b03161461153d576040516323b872dd60e01b81526001600160a01b038716906323b872dd906114dd908c9087908790600401611ec6565b602060405180830381600087803b1580156114f757600080fd5b505af115801561150b573d6000803e3d6000fd5b505050506040513d601f19601f8201168201806040525081019061152f9190611c7f565b5061153a828261214b565b90505b611547858261214b565b90506001600160a01b0386166323b872dd8a61156960408e0160208f01611c1a565b846040518463ffffffff1660e01b815260040161158893929190611ec6565b602060405180830381600087803b1580156115a257600080fd5b505af11580156115b6573d6000803e3d6000fd5b505050506040513d601f19601f820116820180604052508101906115da9190611c7f565b508935600081815260676020908152604091829020805460ff191660011790557f614ea25d320bad8790c8682a33682434592da32d9816f8eca2e4cba3dd36518b929161162c91908e01908e01611c1a565b8b8d60600160208101906116409190611c1a565b604080519485526001600160a01b03938416602086015291831684830152909116606083015260808d81013590830152519081900360a00190a150505050505050505050565b61168e611a63565b6116986000611abd565b565b6116a2611a63565b606555565b6000806116b76020840184611c1a565b6040516bffffffffffffffffffffffff19606092831b1660208281019190915285013560348201529084013560548201526080840135607482015260940160405160208183030381529060405280519060200120905061175b8184806040019061172191906120aa565b8080601f01602080910402602001604051908101604052809392919081815260200183838082843760009201919091525061198b92505050565b9392505050565b600054610100900460ff16158080156117825750600054600160ff909116105b8061179c5750303b15801561179c575060005460ff166001145b6117ff5760405162461bcd60e51b815260206004820152602e60248201527f496e697469616c697a61626c653a20636f6e747261637420697320616c72656160448201526d191e481a5b9a5d1a585b1a5e995960921b6064820152608401610344565b6000805460ff191660011790558015611822576000805461ff0019166101001790555b61182a611b0f565b60fa606555606680546001600160a01b0319166001600160a01b0384161790558015611890576000805461ff0019169055604051600181527f7f26b83ff96e1f2b6a682f133852f6798a09c465da95921460cefb38474024989060200160405180910390a15b5050565b6000806118a76060840160408501611c1a565b60808401356118ba6101008601866120f6565b6118ca6080880160608901611c1a565b6040516118e795949392919060c08a0135908a3590602001611e7b565b60408051601f198184030181529190528051602090910120905061175b8161172160e08601866120aa565b61191a611a63565b6001600160a01b03811661197f5760405162461bcd60e51b815260206004820152602660248201527f4f776e61626c653a206e6577206f776e657220697320746865207a65726f206160448201526564647265737360d01b6064820152608401610344565b61198881611abd565b50565b60008060008061199a85611b3e565b6040517f19457468657265756d205369676e6564204d6573736167653a0a3332000000006020820152603c81018a90529295509093509150600190605c0160408051601f198184030181528282528051602091820120600084529083018083525260ff841690820152606081018590526080810184905260a0016020604051602081039080840390855afa158015611a36573d6000803e3d6000fd5b5050604051601f190151979650505050505050565b600061175b828461212c565b600061175b828461210c565b6033546001600160a01b031633146116985760405162461bcd60e51b815260206004820181905260248201527f4f776e61626c653a2063616c6c6572206973206e6f7420746865206f776e65726044820152606401610344565b603380546001600160a01b038381166001600160a01b0319831681179093556040519116919082907f8be0079c531659141344cd1fd0a4f28419497f9722a3daafe3b4186f6b6457e090600090a35050565b600054610100900460ff16611b365760405162461bcd60e51b815260040161034490612016565b611698611bc1565b60008060008351604114611ba35760405162461bcd60e51b815260206004820152602660248201527f4d61726b6574506c6163653a20696e76616c6964207369676e6174757265206c60448201526532b733ba341760d11b6064820152608401610344565b50505060208101516040820151606090920151909260009190911a90565b600054610100900460ff16611be85760405162461bcd60e51b815260040161034490612016565b61169833611abd565b60006101608284031215611c03578081fd5b50919050565b600060a08284031215611c03578081fd5b600060208284031215611c2b578081fd5b813561175b8161218e565b600060208284031215611c47578081fd5b815161175b8161218e565b60008060408385031215611c64578081fd5b8251611c6f8161218e565b6020939093015192949293505050565b600060208284031215611c90578081fd5b8151801515811461175b578182fd5b60008060408385031215611cb1578182fd5b82359150602083013567ffffffffffffffff80821115611ccf578283fd5b818501915085601f830112611ce2578283fd5b813581811115611cf457611cf4612178565b604051601f8201601f19908116603f01168101908382118183101715611d1c57611d1c612178565b81604052828152886020848701011115611d34578586fd5b82602086016020830137856020848301015280955050505050509250929050565b600060208284031215611d66578081fd5b813567ffffffffffffffff811115611d7c578182fd5b611d8884828501611bf1565b949350505050565b60008060408385031215611da2578182fd5b823567ffffffffffffffff80821115611db9578384fd5b611dc586838701611bf1565b93506020850135915080821115611dda578283fd5b50611de785828601611c09565b9150509250929050565b600060208284031215611e02578081fd5b813567ffffffffffffffff811115611e18578182fd5b611d8884828501611c09565b600060208284031215611e35578081fd5b5035919050565b600060208284031215611e4d578081fd5b5051919050565b600060208284031215611e65578081fd5b81356001600160601b038116811461175b578182fd5b60006001600160601b0319808a60601b1683528860148401528688603485013760609590951b9094169401603481019490945260488401919091526068830152506088019392505050565b6001600160a01b039384168152919092166020820152604081019190915260600190565b6001600160a01b03851681526001600160601b03841660208201526060604082018190528101829052818360808301376000818301608090810191909152601f909201601f191601019392505050565b60208082526033908201527f4d61726b6574506c6163653a2073656c6c657241646472657373207369676e206040820152721d995c9a599a58d85d1a5bdb8819985a5b1959606a1b606082015260800190565b60208082526022908201527f4d61726b6574506c6163653a206e6f6e636520616c72656164792070726f6365604082015261737360f01b606082015260800190565b60208082526027908201527f4d61726b6574506c6163653a20436865636b2074686520746f6b656e20616c6c60408201526637bbb0b731b29760c91b606082015260800190565b6020808252602b908201527f496e697469616c697a61626c653a20636f6e7472616374206973206e6f74206960408201526a6e697469616c697a696e6760a81b606082015260800190565b60208082526029908201527f4d61726b6574506c6163653a20436f6c6c656374696f6e206d7573742062652060408201526830b8383937bb32b21760b91b606082015260800190565b6000808335601e198436030181126120c0578283fd5b83018035915067ffffffffffffffff8211156120da578283fd5b6020019150368190038213156120ef57600080fd5b9250929050565b6000808335601e198436030181126120c0578182fd5b60008261212757634e487b7160e01b81526012600452602481fd5b500490565b600081600019048311821515161561214657612146612162565b500290565b60008282101561215d5761215d612162565b500390565b634e487b7160e01b600052601160045260246000fd5b634e487b7160e01b600052604160045260246000fd5b6001600160a01b038116811461198857600080fdfea26469706673582212203d2721c49f941d3ba237b05ddb08ab6f83e7abe5f94aa1227bf11d8547347dd664736f6c63430008040033",
  "linkReferences": {},
  "deployedLinkReferences": {}
}