{
  "_format": "hh-sol-artifact-1",
  "contractName": "MarketPlace",
  "sourceName": "contracts/MarketPlace.sol",
  "abi": [
    {
      "anonymous": false,
      "inputs": [
        {
          "indexed": false,
          "internalType": "uint8",
          "name": "version",
          "type": "uint8"
        }
      ],
      "name": "Initialized",
      "type": "event"
    },
    {
      "anonymous": false,
      "inputs": [
        {
          "indexed": true,
          "internalType": "address",
          "name": "previousOwner",
          "type": "address"
        },
        {
          "indexed": true,
          "internalType": "address",
          "name": "newOwner",
          "type": "address"
        }
      ],
      "name": "OwnershipTransferred",
      "type": "event"
    },
    {
      "anonymous": false,
      "inputs": [
        {
          "indexed": false,
          "internalType": "uint256",
          "name": "nonce",
          "type": "uint256"
        },
        {
          "indexed": false,
          "internalType": "address",
          "name": "seller",
          "type": "address"
        },
        {
          "indexed": false,
          "internalType": "uint256",
          "name": "tokenId",
          "type": "uint256"
        },
        {
          "indexed": false,
          "internalType": "address",
          "name": "assetAddress",
          "type": "address"
        },
        {
          "indexed": false,
          "internalType": "uint256",
          "name": "amount",
          "type": "uint256"
        }
      ],
      "name": "flatSale",
      "type": "event"
    },
    {
      "anonymous": false,
      "inputs": [
        {
          "indexed": false,
          "internalType": "uint256",
          "name": "tokenId",
          "type": "uint256"
        },
        {
          "indexed": false,
          "internalType": "address",
          "name": "assetAddress",
          "type": "address"
        },
        {
          "indexed": false,
          "internalType": "uint256",
          "name": "amount",
          "type": "uint256"
        },
        {
          "indexed": false,
          "internalType": "address",
          "name": "winner",
          "type": "address"
        },
        {
          "indexed": false,
          "internalType": "address",
          "name": "seller",
          "type": "address"
        }
      ],
      "name": "lazy_Auction",
      "type": "event"
    },
    {
      "anonymous": false,
      "inputs": [
        {
          "indexed": false,
          "internalType": "uint256",
          "name": "startTime",
          "type": "uint256"
        },
        {
          "indexed": false,
          "internalType": "uint256",
          "name": "endTime",
          "type": "uint256"
        }
      ],
      "name": "lazy_Auction_duration",
      "type": "event"
    },
    {
      "stateMutability": "payable",
      "type": "fallback"
    },
    {
      "inputs": [],
      "name": "decimalPrecision",
      "outputs": [
        {
          "internalType": "uint256",
          "name": "",
          "type": "uint256"
        }
      ],
      "stateMutability": "view",
      "type": "function"
    },
    {
      "inputs": [
        {
          "internalType": "bytes32",
          "name": "hash",
          "type": "bytes32"
        },
        {
          "internalType": "bytes",
          "name": "_signature",
          "type": "bytes"
        }
      ],
      "name": "getSigner",
      "outputs": [
        {
          "internalType": "address",
          "name": "",
          "type": "address"
        }
      ],
      "stateMutability": "pure",
      "type": "function"
    },
    {
      "inputs": [
        {
          "internalType": "contract IblackList",
          "name": "_blacklistAddress",
          "type": "address"
        }
      ],
      "name": "initialize",
      "outputs": [],
      "stateMutability": "nonpayable",
      "type": "function"
    },
    {
      "inputs": [
        {
          "internalType": "uint256",
          "name": "",
          "type": "uint256"
        }
      ],
      "name": "isNonceProcessed",
      "outputs": [
        {
          "internalType": "bool",
          "name": "",
          "type": "bool"
        }
      ],
      "stateMutability": "view",
      "type": "function"
    },
    {
      "inputs": [
        {
          "components": [
            {
              "internalType": "uint256",
              "name": "nonce",
              "type": "uint256"
            },
            {
              "internalType": "address",
              "name": "seller",
              "type": "address"
            },
            {
              "internalType": "address",
              "name": "assetAddress",
              "type": "address"
            },
            {
              "internalType": "address",
              "name": "paymentAssetAddress",
              "type": "address"
            },
            {
              "internalType": "uint256",
              "name": "tokenId",
              "type": "uint256"
            },
            {
              "internalType": "uint96",
              "name": "royality",
              "type": "uint96"
            },
            {
              "internalType": "uint256",
              "name": "amount",
              "type": "uint256"
            },
            {
              "internalType": "bytes",
              "name": "seller_signature",
              "type": "bytes"
            },
            {
              "internalType": "string",
              "name": "tokenUri",
              "type": "string"
            },
            {
              "internalType": "uint256",
              "name": "startTime",
              "type": "uint256"
            },
            {
              "internalType": "uint256",
              "name": "endTime",
              "type": "uint256"
            }
          ],
          "internalType": "struct MarketPlace.SellerDetails",
          "name": "sellerDetails",
          "type": "tuple"
        },
        {
          "components": [
            {
              "internalType": "address",
              "name": "winnerAddress",
              "type": "address"
            },
            {
              "internalType": "uint256",
              "name": "amount",
              "type": "uint256"
            },
            {
              "internalType": "bytes",
              "name": "winnerSignature",
              "type": "bytes"
            },
            {
              "internalType": "uint256",
              "name": "bidTime",
              "type": "uint256"
            },
            {
              "internalType": "uint256",
              "name": "nonce",
              "type": "uint256"
            }
          ],
          "internalType": "struct MarketPlace.WinnerDetails",
          "name": "winnerDetails",
          "type": "tuple"
        }
      ],
      "name": "lazyAuction",
      "outputs": [],
      "stateMutability": "nonpayable",
      "type": "function"
    },
    {
      "inputs": [],
      "name": "owner",
      "outputs": [
        {
          "internalType": "address",
          "name": "",
          "type": "address"
        }
      ],
      "stateMutability": "view",
      "type": "function"
    },
    {
      "inputs": [],
      "name": "platFormFeePercent",
      "outputs": [
        {
          "internalType": "uint256",
          "name": "",
          "type": "uint256"
        }
      ],
      "stateMutability": "view",
      "type": "function"
    },
    {
      "inputs": [],
      "name": "renounceOwnership",
      "outputs": [],
      "stateMutability": "nonpayable",
      "type": "function"
    },
    {
      "inputs": [
        {
          "internalType": "uint256",
          "name": "_newPlatFormFeePercent",
          "type": "uint256"
        }
      ],
      "name": "setPlatFormFeePercent",
      "outputs": [],
      "stateMutability": "nonpayable",
      "type": "function"
    },
    {
      "inputs": [
        {
          "internalType": "address",
          "name": "newOwner",
          "type": "address"
        }
      ],
      "name": "transferOwnership",
      "outputs": [],
      "stateMutability": "nonpayable",
      "type": "function"
    },
    {
      "inputs": [
        {
          "components": [
            {
              "internalType": "uint256",
              "name": "nonce",
              "type": "uint256"
            },
            {
              "internalType": "address",
              "name": "seller",
              "type": "address"
            },
            {
              "internalType": "address",
              "name": "assetAddress",
              "type": "address"
            },
            {
              "internalType": "address",
              "name": "paymentAssetAddress",
              "type": "address"
            },
            {
              "internalType": "uint256",
              "name": "tokenId",
              "type": "uint256"
            },
            {
              "internalType": "uint96",
              "name": "royality",
              "type": "uint96"
            },
            {
              "internalType": "uint256",
              "name": "amount",
              "type": "uint256"
            },
            {
              "internalType": "bytes",
              "name": "seller_signature",
              "type": "bytes"
            },
            {
              "internalType": "string",
              "name": "tokenUri",
              "type": "string"
            },
            {
              "internalType": "uint256",
              "name": "startTime",
              "type": "uint256"
            },
            {
              "internalType": "uint256",
              "name": "endTime",
              "type": "uint256"
            }
          ],
          "internalType": "struct MarketPlace.SellerDetails",
          "name": "sellerDetails",
          "type": "tuple"
        }
      ],
      "name": "verifySellerSign",
      "outputs": [
        {
          "internalType": "address",
          "name": "",
          "type": "address"
        }
      ],
      "stateMutability": "pure",
      "type": "function"
    },
    {
      "inputs": [
        {
          "components": [
            {
              "internalType": "address",
              "name": "winnerAddress",
              "type": "address"
            },
            {
              "internalType": "uint256",
              "name": "amount",
              "type": "uint256"
            },
            {
              "internalType": "bytes",
              "name": "winnerSignature",
              "type": "bytes"
            },
            {
              "internalType": "uint256",
              "name": "bidTime",
              "type": "uint256"
            },
            {
              "internalType": "uint256",
              "name": "nonce",
              "type": "uint256"
            }
          ],
          "internalType": "struct MarketPlace.WinnerDetails",
          "name": "winnerDetails",
          "type": "tuple"
        }
      ],
      "name": "verifyWinnerSign",
      "outputs": [
        {
          "internalType": "address",
          "name": "",
          "type": "address"
        }
      ],
      "stateMutability": "pure",
      "type": "function"
    },
    {
      "stateMutability": "payable",
      "type": "receive"
    }
  ],
  "bytecode": "0x608060405234801561001057600080fd5b50611693806100206000396000f3fe6080604052600436106100a55760003560e01c8063b4ffc2bf11610061578063b4ffc2bf1461019e578063c4d66de8146101be578063c4efa665146101de578063d0b684b6146101f3578063f2fde38b14610213578063f7b2ec0d1461023357005b806302525e1b146100ae5780636b3f4b3f146100ce578063715018a614610113578063815a1e4e146101285780638439807c1461014c5780638da5cb5b1461016c57005b366100ac57005b005b3480156100ba57600080fd5b506100ac6100c936600461136d565b610253565b3480156100da57600080fd5b506100fe6100e9366004611401565b60676020526000908152604090205460ff1681565b60405190151581526020015b60405180910390f35b34801561011f57600080fd5b506100ac610c7f565b34801561013457600080fd5b5061013e60655481565b60405190815260200161010a565b34801561015857600080fd5b506100ac610167366004611401565b610c93565b34801561017857600080fd5b506033546001600160a01b03165b6040516001600160a01b03909116815260200161010a565b3480156101aa57600080fd5b506101866101b93660046113ce565b610ca0565b3480156101ca57600080fd5b506100ac6101d9366004611213565b610d5b565b3480156101ea57600080fd5b5061013e606481565b3480156101ff57600080fd5b5061018661020e366004611332565b610e8d565b34801561021f57600080fd5b506100ac61022e366004611213565b610f0b565b34801561023f57600080fd5b5061018661024e36600461127c565b610f84565b60665460405163e025120d60e01b81523360048201526001600160a01b039091169063e025120d9060240160206040518083038186803b15801561029657600080fd5b505afa1580156102aa573d6000803e3d6000fd5b505050506040513d601f19601f820116820180604052508101906102ce919061125c565b6103155760405162461bcd60e51b81526020600482015260136024820152721d5cd95c881a5cc8189b1858dadb1a5cdd1959606a1b60448201526064015b60405180910390fd5b813560009081526067602052604090205460ff16156103815760405162461bcd60e51b815260206004820152602260248201527f4d61726b6574506c6163653a206e6f6e636520616c72656164792070726f6365604482015261737360f01b606482015260840161030c565b600061038c83610e8d565b90506001600160a01b0381166103a86040850160208601611213565b6001600160a01b0316146104135760405162461bcd60e51b815260206004820152602c60248201527f4d61726b6574506c6163653a2073656c6c6572207369676e207665726966696360448201526b185d1a5bdb8819985a5b195960a21b606482015260840161030c565b600061041e83610ca0565b90506001600160a01b0381166104376020850185611213565b6001600160a01b0316146104a25760405162461bcd60e51b815260206004820152602c60248201527f4d61726b6574506c6163653a2077696e6e6572207369676e207665726966696360448201526b185d1a5bdb8819985a5b195960a21b606482015260840161030c565b60006104b46060860160408701611213565b90506001600160a01b03811663e985e9c56104d56040880160208901611213565b6040516001600160e01b031960e084901b1681526001600160a01b03909116600482015230602482015260440160206040518083038186803b15801561051a57600080fd5b505afa15801561052e573d6000803e3d6000fd5b505050506040513d601f19601f82011682018060405250810190610552919061125c565b61059e5760405162461bcd60e51b815260206004820181905260248201527f4d61726b6574506c6163653a2061646472657373206e6f7420617070726f7665604482015260640161030c565b608085013580610659576001600160a01b038216637b17b7a86105c76040890160208a01611213565b6105d56101008a018a6115b0565b6105e560c08c0160a08d01611431565b6040518563ffffffff1660e01b815260040161060494939291906114c7565b602060405180830381600087803b15801561061e57600080fd5b505af1158015610632573d6000803e3d6000fd5b505050506040513d601f19601f820116820180604052508101906106569190611419565b90505b6001600160a01b0382166323b872dd6106786040890160208a01611213565b6106856020890189611213565b846040518463ffffffff1660e01b81526004016106a4939291906114a3565b600060405180830381600087803b1580156106be57600080fd5b505af11580156106d2573d6000803e3d6000fd5b50600092506106ea9150506080880160608901611213565b9050602086018035906001600160a01b038316906370a082319061070e908a611213565b6040516001600160e01b031960e084901b1681526001600160a01b03909116600482015260240160206040518083038186803b15801561074d57600080fd5b505afa158015610761573d6000803e3d6000fd5b505050506040513d601f19601f820116820180604052508101906107859190611419565b10156107d35760405162461bcd60e51b815260206004820152601c60248201527f4d61726b6574506c6163653a20496e7375666963656e742066756e6400000000604482015260640161030c565b604051636eb1769f60e11b815233600482015230602482015260c0880135906001600160a01b0383169063dd62ed3e9060440160206040518083038186803b15801561081e57600080fd5b505afa158015610832573d6000803e3d6000fd5b505050506040513d601f19601f820116820180604052508101906108569190611419565b10156108b45760405162461bcd60e51b815260206004820152602760248201527f4d61726b6574506c6163653a20436865636b2074686520746f6b656e20616c6c60448201526637bbb0b731b29760c91b606482015260840161030c565b60006108db6127106108d56065548a6020013561104490919063ffffffff16565b90611050565b90506001600160a01b0382166323b872dd6108f960208a018a611213565b30846040518463ffffffff1660e01b8152600401610919939291906114a3565b602060405180830381600087803b15801561093357600080fd5b505af1158015610947573d6000803e3d6000fd5b505050506040513d601f19601f8201168201806040525081019061096b919061125c565b5060405163152a902d60e11b8152600481018490526020880135602482015260009081906001600160a01b03871690632a55205a90604401604080518083038186803b1580156109ba57600080fd5b505afa1580156109ce573d6000803e3d6000fd5b505050506040513d601f19601f820116820180604052508101906109f2919061122f565b90925090506020808a013590600090610a119060408e01908e01611213565b90508215610add576001600160a01b038416610a3360408e0160208f01611213565b6001600160a01b031614610add576001600160a01b0386166323b872dd610a5d60208e018e611213565b86866040518463ffffffff1660e01b8152600401610a7d939291906114a3565b602060405180830381600087803b158015610a9757600080fd5b505af1158015610aab573d6000803e3d6000fd5b505050506040513d601f19601f82011682018060405250810190610acf919061125c565b50610ada8383611605565b91505b610ae78583611605565b91506001600160a01b0386166323b872dd610b0560208e018e611213565b83856040518463ffffffff1660e01b8152600401610b25939291906114a3565b602060405180830381600087803b158015610b3f57600080fd5b505af1158015610b53573d6000803e3d6000fd5b505050506040513d601f19601f82011682018060405250810190610b77919061125c565b506001606760008e60000135815260200190815260200160002060006101000a81548160ff0219169083151502179055507f302ffae8787300a79a463da1fa37f941396b40dea9b4378919fec3a51c6d26638c608001358d6040016020810190610be19190611213565b8e60c001358e6000016020810190610bf99190611213565b604080519485526001600160a01b039384166020860152840191909152811660608301528316608082015260a00160405180910390a1604080516101208e013581526101408e013560208201527f5ed853b3fa177268605ccb81c77580a12da96f52f3be3b8266186a0b2a11f659910160405180910390a1505050505050505050505050565b610c8761105c565b610c9160006110b6565b565b610c9b61105c565b606555565b600080610cb06020840184611213565b6040516bffffffffffffffffffffffff19606092831b16602082810191909152850135603482015290840135605482015260808401356074820152609401604051602081830303815290604052805190602001209050610d5481848060400190610d1a9190611564565b8080601f016020809104026020016040519081016040528093929190818152602001838380828437600092019190915250610f8492505050565b9392505050565b600054610100900460ff1615808015610d7b5750600054600160ff909116105b80610d955750303b158015610d95575060005460ff166001145b610df85760405162461bcd60e51b815260206004820152602e60248201527f496e697469616c697a61626c653a20636f6e747261637420697320616c72656160448201526d191e481a5b9a5d1a585b1a5e995960921b606482015260840161030c565b6000805460ff191660011790558015610e1b576000805461ff0019166101001790555b610e23611108565b60fa606555606680546001600160a01b0319166001600160a01b0384161790558015610e89576000805461ff0019169055604051600181527f7f26b83ff96e1f2b6a682f133852f6798a09c465da95921460cefb38474024989060200160405180910390a15b5050565b600080610ea06060840160408501611213565b6080840135610eb36101008601866115b0565b610ec36080880160608901611213565b604051610ee095949392919060c08a0135908a3590602001611458565b60408051601f1981840301815291905280516020909101209050610d5481610d1a60e0860186611564565b610f1361105c565b6001600160a01b038116610f785760405162461bcd60e51b815260206004820152602660248201527f4f776e61626c653a206e6577206f776e657220697320746865207a65726f206160448201526564647265737360d01b606482015260840161030c565b610f81816110b6565b50565b600080600080610f9385611137565b6040517f19457468657265756d205369676e6564204d6573736167653a0a3332000000006020820152603c81018a90529295509093509150600190605c0160408051601f198184030181528282528051602091820120600084529083018083525260ff841690820152606081018590526080810184905260a0016020604051602081039080840390855afa15801561102f573d6000803e3d6000fd5b5050604051601f190151979650505050505050565b6000610d5482846115e6565b6000610d5482846115c6565b6033546001600160a01b03163314610c915760405162461bcd60e51b815260206004820181905260248201527f4f776e61626c653a2063616c6c6572206973206e6f7420746865206f776e6572604482015260640161030c565b603380546001600160a01b038381166001600160a01b0319831681179093556040519116919082907f8be0079c531659141344cd1fd0a4f28419497f9722a3daafe3b4186f6b6457e090600090a35050565b600054610100900460ff1661112f5760405162461bcd60e51b815260040161030c90611519565b610c916111ba565b6000806000835160411461119c5760405162461bcd60e51b815260206004820152602660248201527f4d61726b6574506c6163653a20696e76616c6964207369676e6174757265206c60448201526532b733ba341760d11b606482015260840161030c565b50505060208101516040820151606090920151909260009190911a90565b600054610100900460ff166111e15760405162461bcd60e51b815260040161030c90611519565b610c91336110b6565b600061016082840312156111fc578081fd5b50919050565b600060a082840312156111fc578081fd5b600060208284031215611224578081fd5b8135610d5481611648565b60008060408385031215611241578081fd5b825161124c81611648565b6020939093015192949293505050565b60006020828403121561126d578081fd5b81518015158114610d54578182fd5b6000806040838503121561128e578182fd5b82359150602083013567ffffffffffffffff808211156112ac578283fd5b818501915085601f8301126112bf578283fd5b8135818111156112d1576112d1611632565b604051601f8201601f19908116603f011681019083821181831017156112f9576112f9611632565b81604052828152886020848701011115611311578586fd5b82602086016020830137856020848301015280955050505050509250929050565b600060208284031215611343578081fd5b813567ffffffffffffffff811115611359578182fd5b611365848285016111ea565b949350505050565b6000806040838503121561137f578182fd5b823567ffffffffffffffff80821115611396578384fd5b6113a2868387016111ea565b935060208501359150808211156113b7578283fd5b506113c485828601611202565b9150509250929050565b6000602082840312156113df578081fd5b813567ffffffffffffffff8111156113f5578182fd5b61136584828501611202565b600060208284031215611412578081fd5b5035919050565b60006020828403121561142a578081fd5b5051919050565b600060208284031215611442578081fd5b81356001600160601b0381168114610d54578182fd5b60006001600160601b0319808a60601b1683528860148401528688603485013760609590951b9094169401603481019490945260488401919091526068830152506088019392505050565b6001600160a01b039384168152919092166020820152604081019190915260600190565b6001600160a01b0385168152606060208201819052810183905282846080830137600080608085840101526080601f19601f86011683010190506001600160601b038316604083015295945050505050565b6020808252602b908201527f496e697469616c697a61626c653a20636f6e7472616374206973206e6f74206960408201526a6e697469616c697a696e6760a81b606082015260800190565b6000808335601e1984360301811261157a578283fd5b83018035915067ffffffffffffffff821115611594578283fd5b6020019150368190038213156115a957600080fd5b9250929050565b6000808335601e1984360301811261157a578182fd5b6000826115e157634e487b7160e01b81526012600452602481fd5b500490565b60008160001904831182151516156116005761160061161c565b500290565b6000828210156116175761161761161c565b500390565b634e487b7160e01b600052601160045260246000fd5b634e487b7160e01b600052604160045260246000fd5b6001600160a01b0381168114610f8157600080fdfea264697066735822122013d2f6f7c24e63896d5ba76821d7fa9130430d14842b07331dbe320a621faef964736f6c63430008040033",
  "linkReferences": {},
  "deployedLinkReferences": {}
}