{
  "_format": "hh-sol-artifact-1",
  "contractName": "ERC721Token",
  "sourceName": "contracts/ERC721Token.sol",
  "abi": [
    {
      "anonymous": false,
      "inputs": [
        {
          "indexed": true,
          "internalType": "address",
          "name": "owner",
          "type": "address"
        },
        {
          "indexed": true,
          "internalType": "address",
          "name": "approved",
          "type": "address"
        },
        {
          "indexed": true,
          "internalType": "uint256",
          "name": "tokenId",
          "type": "uint256"
        }
      ],
      "name": "Approval",
      "type": "event"
    },
    {
      "anonymous": false,
      "inputs": [
        {
          "indexed": true,
          "internalType": "address",
          "name": "owner",
          "type": "address"
        },
        {
          "indexed": true,
          "internalType": "address",
          "name": "operator",
          "type": "address"
        },
        {
          "indexed": false,
          "internalType": "bool",
          "name": "approved",
          "type": "bool"
        }
      ],
      "name": "ApprovalForAll",
      "type": "event"
    },
    {
      "anonymous": false,
      "inputs": [
        {
          "indexed": false,
          "internalType": "uint8",
          "name": "version",
          "type": "uint8"
        }
      ],
      "name": "Initialized",
      "type": "event"
    },
    {
      "anonymous": false,
      "inputs": [
        {
          "indexed": true,
          "internalType": "address",
          "name": "previousOwner",
          "type": "address"
        },
        {
          "indexed": true,
          "internalType": "address",
          "name": "newOwner",
          "type": "address"
        }
      ],
      "name": "OwnershipTransferred",
      "type": "event"
    },
    {
      "anonymous": false,
      "inputs": [
        {
          "indexed": false,
          "internalType": "address",
          "name": "account",
          "type": "address"
        }
      ],
      "name": "Paused",
      "type": "event"
    },
    {
      "anonymous": false,
      "inputs": [
        {
          "indexed": true,
          "internalType": "address",
          "name": "from",
          "type": "address"
        },
        {
          "indexed": true,
          "internalType": "address",
          "name": "to",
          "type": "address"
        },
        {
          "indexed": true,
          "internalType": "uint256",
          "name": "tokenId",
          "type": "uint256"
        }
      ],
      "name": "Transfer",
      "type": "event"
    },
    {
      "anonymous": false,
      "inputs": [
        {
          "indexed": false,
          "internalType": "address",
          "name": "account",
          "type": "address"
        }
      ],
      "name": "Unpaused",
      "type": "event"
    },
    {
      "inputs": [
        {
          "internalType": "address",
          "name": "to",
          "type": "address"
        },
        {
          "internalType": "uint256",
          "name": "tokenId",
          "type": "uint256"
        }
      ],
      "name": "approve",
      "outputs": [],
      "stateMutability": "nonpayable",
      "type": "function"
    },
    {
      "inputs": [
        {
          "internalType": "address",
          "name": "owner",
          "type": "address"
        }
      ],
      "name": "balanceOf",
      "outputs": [
        {
          "internalType": "uint256",
          "name": "",
          "type": "uint256"
        }
      ],
      "stateMutability": "view",
      "type": "function"
    },
    {
      "inputs": [
        {
          "internalType": "uint256",
          "name": "tokenId",
          "type": "uint256"
        }
      ],
      "name": "burn",
      "outputs": [],
      "stateMutability": "nonpayable",
      "type": "function"
    },
    {
      "inputs": [
        {
          "internalType": "uint256",
          "name": "tokenId",
          "type": "uint256"
        }
      ],
      "name": "getApproved",
      "outputs": [
        {
          "internalType": "address",
          "name": "",
          "type": "address"
        }
      ],
      "stateMutability": "view",
      "type": "function"
    },
    {
      "inputs": [
        {
          "internalType": "uint96",
          "name": "_maxRoyality",
          "type": "uint96"
        },
        {
          "internalType": "contract IblackList",
          "name": "_blacklistAddress",
          "type": "address"
        }
      ],
      "name": "initialize",
      "outputs": [],
      "stateMutability": "nonpayable",
      "type": "function"
    },
    {
      "inputs": [
        {
          "internalType": "address",
          "name": "owner",
          "type": "address"
        },
        {
          "internalType": "address",
          "name": "operator",
          "type": "address"
        }
      ],
      "name": "isApprovedForAll",
      "outputs": [
        {
          "internalType": "bool",
          "name": "",
          "type": "bool"
        }
      ],
      "stateMutability": "view",
      "type": "function"
    },
    {
      "inputs": [],
      "name": "maximumRoyality",
      "outputs": [
        {
          "internalType": "uint96",
          "name": "",
          "type": "uint96"
        }
      ],
      "stateMutability": "view",
      "type": "function"
    },
    {
      "inputs": [
        {
          "internalType": "address",
          "name": "to",
          "type": "address"
        },
        {
          "internalType": "string",
          "name": "tokenURI",
          "type": "string"
        },
        {
          "internalType": "uint96",
          "name": "_royality",
          "type": "uint96"
        }
      ],
      "name": "mint",
      "outputs": [
        {
          "internalType": "uint256",
          "name": "",
          "type": "uint256"
        }
      ],
      "stateMutability": "nonpayable",
      "type": "function"
    },
    {
      "inputs": [],
      "name": "name",
      "outputs": [
        {
          "internalType": "string",
          "name": "",
          "type": "string"
        }
      ],
      "stateMutability": "view",
      "type": "function"
    },
    {
      "inputs": [],
      "name": "owner",
      "outputs": [
        {
          "internalType": "address",
          "name": "",
          "type": "address"
        }
      ],
      "stateMutability": "view",
      "type": "function"
    },
    {
      "inputs": [
        {
          "internalType": "uint256",
          "name": "tokenId",
          "type": "uint256"
        }
      ],
      "name": "ownerOf",
      "outputs": [
        {
          "internalType": "address",
          "name": "",
          "type": "address"
        }
      ],
      "stateMutability": "view",
      "type": "function"
    },
    {
      "inputs": [],
      "name": "paused",
      "outputs": [
        {
          "internalType": "bool",
          "name": "",
          "type": "bool"
        }
      ],
      "stateMutability": "view",
      "type": "function"
    },
    {
      "inputs": [],
      "name": "renounceOwnership",
      "outputs": [],
      "stateMutability": "nonpayable",
      "type": "function"
    },
    {
      "inputs": [
        {
          "internalType": "uint256",
          "name": "_tokenId",
          "type": "uint256"
        },
        {
          "internalType": "uint256",
          "name": "_salePrice",
          "type": "uint256"
        }
      ],
      "name": "royaltyInfo",
      "outputs": [
        {
          "internalType": "address",
          "name": "",
          "type": "address"
        },
        {
          "internalType": "uint256",
          "name": "",
          "type": "uint256"
        }
      ],
      "stateMutability": "view",
      "type": "function"
    },
    {
      "inputs": [
        {
          "internalType": "address",
          "name": "from",
          "type": "address"
        },
        {
          "internalType": "address",
          "name": "to",
          "type": "address"
        },
        {
          "internalType": "uint256",
          "name": "tokenId",
          "type": "uint256"
        }
      ],
      "name": "safeTransferFrom",
      "outputs": [],
      "stateMutability": "nonpayable",
      "type": "function"
    },
    {
      "inputs": [
        {
          "internalType": "address",
          "name": "from",
          "type": "address"
        },
        {
          "internalType": "address",
          "name": "to",
          "type": "address"
        },
        {
          "internalType": "uint256",
          "name": "tokenId",
          "type": "uint256"
        },
        {
          "internalType": "bytes",
          "name": "data",
          "type": "bytes"
        }
      ],
      "name": "safeTransferFrom",
      "outputs": [],
      "stateMutability": "nonpayable",
      "type": "function"
    },
    {
      "inputs": [
        {
          "internalType": "address",
          "name": "operator",
          "type": "address"
        },
        {
          "internalType": "bool",
          "name": "approved",
          "type": "bool"
        }
      ],
      "name": "setApprovalForAll",
      "outputs": [],
      "stateMutability": "nonpayable",
      "type": "function"
    },
    {
      "inputs": [
        {
          "internalType": "uint96",
          "name": "_value",
          "type": "uint96"
        }
      ],
      "name": "setMaximumRoyality",
      "outputs": [],
      "stateMutability": "nonpayable",
      "type": "function"
    },
    {
      "inputs": [
        {
          "internalType": "bytes4",
          "name": "interfaceId",
          "type": "bytes4"
        }
      ],
      "name": "supportsInterface",
      "outputs": [
        {
          "internalType": "bool",
          "name": "",
          "type": "bool"
        }
      ],
      "stateMutability": "view",
      "type": "function"
    },
    {
      "inputs": [],
      "name": "symbol",
      "outputs": [
        {
          "internalType": "string",
          "name": "",
          "type": "string"
        }
      ],
      "stateMutability": "view",
      "type": "function"
    },
    {
      "inputs": [
        {
          "internalType": "uint256",
          "name": "index",
          "type": "uint256"
        }
      ],
      "name": "tokenByIndex",
      "outputs": [
        {
          "internalType": "uint256",
          "name": "",
          "type": "uint256"
        }
      ],
      "stateMutability": "view",
      "type": "function"
    },
    {
      "inputs": [
        {
          "internalType": "address",
          "name": "owner",
          "type": "address"
        },
        {
          "internalType": "uint256",
          "name": "index",
          "type": "uint256"
        }
      ],
      "name": "tokenOfOwnerByIndex",
      "outputs": [
        {
          "internalType": "uint256",
          "name": "",
          "type": "uint256"
        }
      ],
      "stateMutability": "view",
      "type": "function"
    },
    {
      "inputs": [
        {
          "internalType": "uint256",
          "name": "tokenId",
          "type": "uint256"
        }
      ],
      "name": "tokenURI",
      "outputs": [
        {
          "internalType": "string",
          "name": "",
          "type": "string"
        }
      ],
      "stateMutability": "view",
      "type": "function"
    },
    {
      "inputs": [],
      "name": "totalSupply",
      "outputs": [
        {
          "internalType": "uint256",
          "name": "",
          "type": "uint256"
        }
      ],
      "stateMutability": "view",
      "type": "function"
    },
    {
      "inputs": [
        {
          "internalType": "address",
          "name": "from",
          "type": "address"
        },
        {
          "internalType": "address",
          "name": "to",
          "type": "address"
        },
        {
          "internalType": "uint256",
          "name": "tokenId",
          "type": "uint256"
        }
      ],
      "name": "transferFrom",
      "outputs": [],
      "stateMutability": "nonpayable",
      "type": "function"
    },
    {
      "inputs": [
        {
          "internalType": "address",
          "name": "newOwner",
          "type": "address"
        }
      ],
      "name": "transferOwnership",
      "outputs": [],
      "stateMutability": "nonpayable",
      "type": "function"
    }
  ],
  "bytecode": "0x608060405234801561001057600080fd5b50612664806100206000396000f3fe608060405234801561001057600080fd5b506004361061018e5760003560e01c806370a08231116100de578063a22cb46511610097578063d98a17ed11610071578063d98a17ed14610366578063e985e9c514610399578063ec1d2ff9146103d5578063f2fde38b146103e857600080fd5b8063a22cb4651461032d578063b88d4fde14610340578063c87b56dd1461035357600080fd5b806370a08231146102d3578063715018a6146102e65780637b17b7a8146102ee5780637e1f12e2146103015780638da5cb5b1461031457806395d89b411461032557600080fd5b80632a55205a1161014b57806342966c681161012557806342966c681461028e5780634f6ccce7146102a15780635c975abb146102b45780636352211e146102c057600080fd5b80632a55205a146102365780632f745c591461026857806342842e0e1461027b57600080fd5b806301ffc9a71461019357806306fdde03146101bb578063081812fc146101d0578063095ea7b3146101fb57806318160ddd1461021057806323b872dd14610223575b600080fd5b6101a66101a136600461227f565b6103fb565b60405190151581526020015b60405180910390f35b6101c361040c565b6040516101b291906123bd565b6101e36101de3660046122b7565b61049e565b6040516001600160a01b0390911681526020016101b2565b61020e610209366004612238565b6104c5565b005b610161545b6040519081526020016101b2565b61020e6102313660046120dd565b6105e0565b6102496102443660046122cf565b610612565b604080516001600160a01b0390931683526020830191909152016101b2565b610215610276366004612238565b6106be565b61020e6102893660046120dd565b610755565b61020e61029c3660046122b7565b610770565b6102156102af3660046122b7565b6107a1565b6101915460ff166101a6565b6101e36102ce3660046122b7565b610844565b6102156102e1366004612089565b6108a4565b61020e61092a565b6102156102fc3660046121c7565b61093e565b61020e61030f36600461230a565b610b16565b60c9546001600160a01b03166101e3565b6101c3610cd0565b61020e61033b36600461219a565b610cdf565b61020e61034e36600461211d565b610cee565b6101c36103613660046122b7565b610d26565b6102285461038190600160a01b90046001600160601b031681565b6040516001600160601b0390911681526020016101b2565b6101a66103a73660046120a5565b6001600160a01b039182166000908152609c6020908152604080832093909416825291909152205460ff1690565b61020e6103e33660046122f0565b610d31565b61020e6103f6366004612089565b610d62565b600061040682610dd8565b92915050565b60606097805461041b90612549565b80601f016020809104026020016040519081016040528092919081815260200182805461044790612549565b80156104945780601f1061046957610100808354040283529160200191610494565b820191906000526020600020905b81548152906001019060200180831161047757829003601f168201915b5050505050905090565b60006104a982610de3565b506000908152609b60205260409020546001600160a01b031690565b60006104d082610844565b9050806001600160a01b0316836001600160a01b031614156105435760405162461bcd60e51b815260206004820152602160248201527f4552433732313a20617070726f76616c20746f2063757272656e74206f776e656044820152603960f91b60648201526084015b60405180910390fd5b336001600160a01b038216148061055f575061055f81336103a7565b6105d15760405162461bcd60e51b815260206004820152603e60248201527f4552433732313a20617070726f76652063616c6c6572206973206e6f7420746f60448201527f6b656e206f776e6572206e6f7220617070726f76656420666f7220616c6c0000606482015260840161053a565b6105db8383610e42565b505050565b6105eb335b82610eb0565b6106075760405162461bcd60e51b815260040161053a9061246d565b6105db838383610f2e565b60008281526066602090815260408083208151808301909252546001600160a01b038116808352600160a01b9091046001600160601b03169282019290925282916106875750604080518082019091526065546001600160a01b0381168252600160a01b90046001600160601b031660208201525b6020810151600090612710906106a6906001600160601b0316876124e7565b6106b091906124d3565b915196919550909350505050565b60006106c9836108a4565b821061072b5760405162461bcd60e51b815260206004820152602b60248201527f455243373231456e756d657261626c653a206f776e657220696e646578206f7560448201526a74206f6620626f756e647360a81b606482015260840161053a565b506001600160a01b0391909116600090815261015f60209081526040808320938352929052205490565b6105db83838360405180602001604052806000815250610cee565b610779336105e5565b6107955760405162461bcd60e51b815260040161053a9061246d565b61079e816110d5565b50565b60006107ad6101615490565b82106108105760405162461bcd60e51b815260206004820152602c60248201527f455243373231456e756d657261626c653a20676c6f62616c20696e646578206f60448201526b7574206f6620626f756e647360a01b606482015260840161053a565b610161828154811061083257634e487b7160e01b600052603260045260246000fd5b90600052602060002001549050919050565b6000818152609960205260408120546001600160a01b0316806104065760405162461bcd60e51b8152602060048201526018602482015277115490cdcc8c4e881a5b9d985b1a59081d1bdad95b88125160421b604482015260640161053a565b60006001600160a01b03821661090e5760405162461bcd60e51b815260206004820152602960248201527f4552433732313a2061646472657373207a65726f206973206e6f7420612076616044820152683634b21037bbb732b960b91b606482015260840161053a565b506001600160a01b03166000908152609a602052604090205490565b6109326110de565b61093c6000611138565b565b6102285460405163e025120d60e01b81523360048201526000916001600160a01b03169063e025120d9060240160206040518083038186803b15801561098357600080fd5b505afa158015610997573d6000803e3d6000fd5b505050506040513d601f19601f820116820180604052508101906109bb9190612263565b6109fd5760405162461bcd60e51b81526020600482015260136024820152721d5cd95c881a5cc8189b1858dadb1a5cdd1959606a1b604482015260640161053a565b610228546001600160601b03600160a01b90910481169083161115610a705760405162461bcd60e51b8152602060048201526024808201527f455243373231546f6b656e3a20526f79616c6974792073686f756c64206265206044820152636c65737360e01b606482015260840161053a565b6001600160a01b038416610ad25760405162461bcd60e51b8152602060048201526024808201527f455243373231546f6b656e3a20746f20616464726573732063616e27742062656044820152630203078360e41b606482015260840161053a565b6000610ade6102275490565b9050610aea858261118a565b610af481856112d8565b610aff818685611372565b610b0e61022780546001019055565b949350505050565b600054610100900460ff1615808015610b365750600054600160ff909116105b80610b505750303b158015610b50575060005460ff166001145b610bb35760405162461bcd60e51b815260206004820152602e60248201527f496e697469616c697a61626c653a20636f6e747261637420697320616c72656160448201526d191e481a5b9a5d1a585b1a5e995960921b606482015260840161053a565b6000805460ff191660011790558015610bd6576000805461ff0019166101001790555b610c1e6040518060400160405280600b81526020016a4d61726b6574506c61636560a81b8152506040518060400160405280600381526020016204d4b560ec1b815250611480565b610c266114b1565b610c2e6114b1565b610c366114d8565b610c3e6114b1565b610c466114b1565b610c4e611507565b610c5d61022780546001019055565b6001600160a01b0382166001600160601b038416600160a01b026001600160a01b031916176102285580156105db576000805461ff0019169055604051600181527f7f26b83ff96e1f2b6a682f133852f6798a09c465da95921460cefb38474024989060200160405180910390a1505050565b60606098805461041b90612549565b610cea338383611536565b5050565b610cf83383610eb0565b610d145760405162461bcd60e51b815260040161053a9061246d565b610d2084848484611605565b50505050565b606061040682611638565b610d396110de565b61022880546001600160601b03909216600160a01b026001600160a01b03909216919091179055565b610d6a6110de565b6001600160a01b038116610dcf5760405162461bcd60e51b815260206004820152602660248201527f4f776e61626c653a206e6577206f776e657220697320746865207a65726f206160448201526564647265737360d01b606482015260840161053a565b61079e81611138565b600061040682611741565b6000818152609960205260409020546001600160a01b031661079e5760405162461bcd60e51b8152602060048201526018602482015277115490cdcc8c4e881a5b9d985b1a59081d1bdad95b88125160421b604482015260640161053a565b6000818152609b6020526040902080546001600160a01b0319166001600160a01b0384169081179091558190610e7782610844565b6001600160a01b03167f8c5be1e5ebec7d5bd14f71427d1e84f3dd0314c0f7b2291e5b200ac8c7c3b92560405160405180910390a45050565b600080610ebc83610844565b9050806001600160a01b0316846001600160a01b03161480610f0357506001600160a01b038082166000908152609c602090815260408083209388168352929052205460ff165b80610b0e5750836001600160a01b0316610f1c8461049e565b6001600160a01b031614949350505050565b826001600160a01b0316610f4182610844565b6001600160a01b031614610fa55760405162461bcd60e51b815260206004820152602560248201527f4552433732313a207472616e736665722066726f6d20696e636f72726563742060448201526437bbb732b960d91b606482015260840161053a565b6001600160a01b0382166110075760405162461bcd60e51b8152602060048201526024808201527f4552433732313a207472616e7366657220746f20746865207a65726f206164646044820152637265737360e01b606482015260840161053a565b611012838383611766565b61101d600082610e42565b6001600160a01b0383166000908152609a60205260408120805460019290611046908490612506565b90915550506001600160a01b0382166000908152609a602052604081208054600192906110749084906124bb565b909155505060008181526099602052604080822080546001600160a01b0319166001600160a01b0386811691821790925591518493918716917fddf252ad1be2c89b69c2b068fc378daa952ba7f163c4a11628f55a4df523b3ef91a4505050565b61079e81611771565b60c9546001600160a01b0316331461093c5760405162461bcd60e51b815260206004820181905260248201527f4f776e61626c653a2063616c6c6572206973206e6f7420746865206f776e6572604482015260640161053a565b60c980546001600160a01b038381166001600160a01b0319831681179093556040519116919082907f8be0079c531659141344cd1fd0a4f28419497f9722a3daafe3b4186f6b6457e090600090a35050565b6001600160a01b0382166111e05760405162461bcd60e51b815260206004820181905260248201527f4552433732313a206d696e7420746f20746865207a65726f2061646472657373604482015260640161053a565b6000818152609960205260409020546001600160a01b0316156112455760405162461bcd60e51b815260206004820152601c60248201527f4552433732313a20746f6b656e20616c7265616479206d696e74656400000000604482015260640161053a565b61125160008383611766565b6001600160a01b0382166000908152609a6020526040812080546001929061127a9084906124bb565b909155505060008181526099602052604080822080546001600160a01b0319166001600160a01b03861690811790915590518392907fddf252ad1be2c89b69c2b068fc378daa952ba7f163c4a11628f55a4df523b3ef908290a45050565b6000828152609960205260409020546001600160a01b03166113535760405162461bcd60e51b815260206004820152602e60248201527f45524337323155524953746f726167653a2055524920736574206f66206e6f6e60448201526d32bc34b9ba32b73a103a37b5b2b760911b606482015260840161053a565b600082815260fb6020908152604090912082516105db92840190611f28565b6127106001600160601b03821611156113e05760405162461bcd60e51b815260206004820152602a60248201527f455243323938313a20726f79616c7479206665652077696c6c206578636565646044820152692073616c65507269636560b01b606482015260840161053a565b6001600160a01b0382166114365760405162461bcd60e51b815260206004820152601b60248201527f455243323938313a20496e76616c696420706172616d65746572730000000000604482015260640161053a565b6040805180820182526001600160a01b0393841681526001600160601b0392831660208083019182526000968752606690529190942093519051909116600160a01b029116179055565b600054610100900460ff166114a75760405162461bcd60e51b815260040161053a90612422565b610cea828261178b565b600054610100900460ff1661093c5760405162461bcd60e51b815260040161053a90612422565b600054610100900460ff166114ff5760405162461bcd60e51b815260040161053a90612422565b61093c6117d9565b600054610100900460ff1661152e5760405162461bcd60e51b815260040161053a90612422565b61093c61180d565b816001600160a01b0316836001600160a01b031614156115985760405162461bcd60e51b815260206004820152601960248201527f4552433732313a20617070726f766520746f2063616c6c657200000000000000604482015260640161053a565b6001600160a01b038381166000818152609c6020908152604080832094871680845294825291829020805460ff191686151590811790915591519182527f17307eab39ab6107e8899845ad3d59bd9653f200f220920489ca2b5937696c31910160405180910390a3505050565b611610848484610f2e565b61161c8484848461183d565b610d205760405162461bcd60e51b815260040161053a906123d0565b606061164382610de3565b600082815260fb60205260408120805461165c90612549565b80601f016020809104026020016040519081016040528092919081815260200182805461168890612549565b80156116d55780601f106116aa576101008083540402835291602001916116d5565b820191906000526020600020905b8154815290600101906020018083116116b857829003601f168201915b5050505050905060006116f360408051602081019091526000815290565b9050805160001415611706575092915050565b815115611738578082604051602001611720929190612351565b60405160208183030381529060405292505050919050565b610b0e8461194a565b60006001600160e01b0319821663780e9d6360e01b14806104065750610406826119be565b6105db8383836119fe565b61177a81611a71565b600090815260666020526040812055565b600054610100900460ff166117b25760405162461bcd60e51b815260040161053a90612422565b81516117c5906097906020850190611f28565b5080516105db906098906020840190611f28565b600054610100900460ff166118005760405162461bcd60e51b815260040161053a90612422565b610191805460ff19169055565b600054610100900460ff166118345760405162461bcd60e51b815260040161053a90612422565b61093c33611138565b60006001600160a01b0384163b1561193f57604051630a85bd0160e11b81526001600160a01b0385169063150b7a0290611881903390899088908890600401612380565b602060405180830381600087803b15801561189b57600080fd5b505af19250505080156118cb575060408051601f3d908101601f191682019092526118c89181019061229b565b60015b611925573d8080156118f9576040519150601f19603f3d011682016040523d82523d6000602084013e6118fe565b606091505b50805161191d5760405162461bcd60e51b815260040161053a906123d0565b805181602001fd5b6001600160e01b031916630a85bd0160e11b149050610b0e565b506001949350505050565b606061195582610de3565b600061196c60408051602081019091526000815290565b9050600081511161198c57604051806020016040528060008152506119b7565b8061199684611ab1565b6040516020016119a7929190612351565b6040516020818303038152906040525b9392505050565b60006001600160e01b031982166380ac58cd60e01b14806119ef57506001600160e01b03198216635b5e139f60e01b145b80610406575061040682611bcb565b611a09838383611c00565b6101915460ff16156105db5760405162461bcd60e51b815260206004820152602b60248201527f4552433732315061757361626c653a20746f6b656e207472616e73666572207760448201526a1a1a5b19481c185d5cd95960aa1b606482015260840161053a565b611a7a81611cba565b600081815260fb602052604090208054611a9390612549565b15905061079e57600081815260fb6020526040812061079e91611fac565b606081611ad55750506040805180820190915260018152600360fc1b602082015290565b8160005b8115611aff5780611ae981612584565b9150611af89050600a836124d3565b9150611ad9565b60008167ffffffffffffffff811115611b2857634e487b7160e01b600052604160045260246000fd5b6040519080825280601f01601f191660200182016040528015611b52576020820181803683370190505b5090505b8415610b0e57611b67600183612506565b9150611b74600a8661259f565b611b7f9060306124bb565b60f81b818381518110611ba257634e487b7160e01b600052603260045260246000fd5b60200101906001600160f81b031916908160001a905350611bc4600a866124d3565b9450611b56565b60006001600160e01b0319821663152a902d60e11b148061040657506301ffc9a760e01b6001600160e01b0319831614610406565b6001600160a01b038316611c5d57611c58816101618054600083815261016260205260408120829055600182018355919091527fafbb1c043347995df017ce3291b765e028ad5f784d2aa00c3f5e073760a4de8b0155565b611c80565b816001600160a01b0316836001600160a01b031614611c8057611c808382611d61565b6001600160a01b038216611c97576105db81611e03565b826001600160a01b0316826001600160a01b0316146105db576105db8282611ee2565b6000611cc582610844565b9050611cd381600084611766565b611cde600083610e42565b6001600160a01b0381166000908152609a60205260408120805460019290611d07908490612506565b909155505060008281526099602052604080822080546001600160a01b0319169055518391906001600160a01b038416907fddf252ad1be2c89b69c2b068fc378daa952ba7f163c4a11628f55a4df523b3ef908390a45050565b60006001611d6e846108a4565b611d789190612506565b60008381526101606020526040902054909150808214611dce576001600160a01b038416600090815261015f60209081526040808320858452825280832054848452818420819055835261016090915290208190555b506000918252610160602090815260408084208490556001600160a01b03909416835261015f81528383209183525290812055565b61016154600090611e1690600190612506565b600083815261016260205260408120546101618054939450909284908110611e4e57634e487b7160e01b600052603260045260246000fd5b90600052602060002001549050806101618381548110611e7e57634e487b7160e01b600052603260045260246000fd5b60009182526020808320909101929092558281526101629091526040808220849055858252812055610161805480611ec657634e487b7160e01b600052603160045260246000fd5b6001900381819060005260206000200160009055905550505050565b6000611eed836108a4565b6001600160a01b03909316600090815261015f6020908152604080832086845282528083208590559382526101609052919091209190915550565b828054611f3490612549565b90600052602060002090601f016020900481019282611f565760008555611f9c565b82601f10611f6f57805160ff1916838001178555611f9c565b82800160010185558215611f9c579182015b82811115611f9c578251825591602001919060010190611f81565b50611fa8929150611fe2565b5090565b508054611fb890612549565b6000825580601f10611fc8575050565b601f01602090049060005260206000209081019061079e91905b5b80821115611fa85760008155600101611fe3565b600067ffffffffffffffff80841115612012576120126125df565b604051601f8501601f19908116603f0116810190828211818310171561203a5761203a6125df565b8160405280935085815286868601111561205357600080fd5b858560208301376000602087830101525050509392505050565b80356001600160601b038116811461208457600080fd5b919050565b60006020828403121561209a578081fd5b81356119b7816125f5565b600080604083850312156120b7578081fd5b82356120c2816125f5565b915060208301356120d2816125f5565b809150509250929050565b6000806000606084860312156120f1578081fd5b83356120fc816125f5565b9250602084013561210c816125f5565b929592945050506040919091013590565b60008060008060808587031215612132578081fd5b843561213d816125f5565b9350602085013561214d816125f5565b925060408501359150606085013567ffffffffffffffff81111561216f578182fd5b8501601f8101871361217f578182fd5b61218e87823560208401611ff7565b91505092959194509250565b600080604083850312156121ac578182fd5b82356121b7816125f5565b915060208301356120d28161260a565b6000806000606084860312156121db578283fd5b83356121e6816125f5565b9250602084013567ffffffffffffffff811115612201578283fd5b8401601f81018613612211578283fd5b61222086823560208401611ff7565b92505061222f6040850161206d565b90509250925092565b6000806040838503121561224a578182fd5b8235612255816125f5565b946020939093013593505050565b600060208284031215612274578081fd5b81516119b78161260a565b600060208284031215612290578081fd5b81356119b781612618565b6000602082840312156122ac578081fd5b81516119b781612618565b6000602082840312156122c8578081fd5b5035919050565b600080604083850312156122e1578182fd5b50508035926020909101359150565b600060208284031215612301578081fd5b6119b78261206d565b6000806040838503121561231c578182fd5b6120c28361206d565b6000815180845261233d81602086016020860161251d565b601f01601f19169290920160200192915050565b6000835161236381846020880161251d565b83519083019061237781836020880161251d565b01949350505050565b6001600160a01b03858116825284166020820152604081018390526080606082018190526000906123b390830184612325565b9695505050505050565b6020815260006119b76020830184612325565b60208082526032908201527f4552433732313a207472616e7366657220746f206e6f6e20455243373231526560408201527131b2b4bb32b91034b6b83632b6b2b73a32b960711b606082015260800190565b6020808252602b908201527f496e697469616c697a61626c653a20636f6e7472616374206973206e6f74206960408201526a6e697469616c697a696e6760a81b606082015260800190565b6020808252602e908201527f4552433732313a2063616c6c6572206973206e6f7420746f6b656e206f776e6560408201526d1c881b9bdc88185c1c1c9bdd995960921b606082015260800190565b600082198211156124ce576124ce6125b3565b500190565b6000826124e2576124e26125c9565b500490565b6000816000190483118215151615612501576125016125b3565b500290565b600082821015612518576125186125b3565b500390565b60005b83811015612538578181015183820152602001612520565b83811115610d205750506000910152565b600181811c9082168061255d57607f821691505b6020821081141561257e57634e487b7160e01b600052602260045260246000fd5b50919050565b6000600019821415612598576125986125b3565b5060010190565b6000826125ae576125ae6125c9565b500690565b634e487b7160e01b600052601160045260246000fd5b634e487b7160e01b600052601260045260246000fd5b634e487b7160e01b600052604160045260246000fd5b6001600160a01b038116811461079e57600080fd5b801515811461079e57600080fd5b6001600160e01b03198116811461079e57600080fdfea26469706673582212207341bf98d46980d0074c8ee7d9c639156d96b19f02c5737a7263361ac612c78e64736f6c63430008040033",
  "linkReferences": {},
  "deployedLinkReferences": {}
}