{
  "_format": "hh-sol-artifact-1",
  "contractName": "BlackList",
  "sourceName": "contracts/BlackList.sol",
  "abi": [
    {
      "anonymous": false,
      "inputs": [
        {
          "indexed": false,
          "internalType": "address",
          "name": "_node",
          "type": "address"
        },
        {
          "indexed": false,
          "internalType": "bool",
          "name": "",
          "type": "bool"
        }
      ],
      "name": "Blacklisted",
      "type": "event"
    },
    {
      "anonymous": false,
      "inputs": [
        {
          "indexed": true,
          "internalType": "address",
          "name": "previousOwner",
          "type": "address"
        },
        {
          "indexed": true,
          "internalType": "address",
          "name": "newOwner",
          "type": "address"
        }
      ],
      "name": "OwnershipTransferred",
      "type": "event"
    },
    {
      "inputs": [
        {
          "internalType": "address",
          "name": "node",
          "type": "address"
        }
      ],
      "name": "AddRemoveBlacklist",
      "outputs": [],
      "stateMutability": "nonpayable",
      "type": "function"
    },
    {
      "inputs": [
        {
          "internalType": "address",
          "name": "uesr",
          "type": "address"
        }
      ],
      "name": "_isPermitted",
      "outputs": [
        {
          "internalType": "bool",
          "name": "",
          "type": "bool"
        }
      ],
      "stateMutability": "view",
      "type": "function"
    },
    {
      "inputs": [],
      "name": "owner",
      "outputs": [
        {
          "internalType": "address",
          "name": "",
          "type": "address"
        }
      ],
      "stateMutability": "view",
      "type": "function"
    },
    {
      "inputs": [],
      "name": "renounceOwnership",
      "outputs": [],
      "stateMutability": "nonpayable",
      "type": "function"
    },
    {
      "inputs": [
        {
          "internalType": "address",
          "name": "newOwner",
          "type": "address"
        }
      ],
      "name": "transferOwnership",
      "outputs": [],
      "stateMutability": "nonpayable",
      "type": "function"
    }
  ],
  "bytecode": "0x608060405234801561001057600080fd5b5061001a3361001f565b61006f565b600080546001600160a01b038381166001600160a01b0319831681178455604051919092169283917f8be0079c531659141344cd1fd0a4f28419497f9722a3daafe3b4186f6b6457e09190a35050565b6103658061007e6000396000f3fe608060405234801561001057600080fd5b50600436106100575760003560e01c80633e20ff881461005c578063715018a6146100715780638da5cb5b14610079578063e025120d14610099578063f2fde38b146100d6575b600080fd5b61006f61006a366004610301565b6100e9565b005b61006f6101c8565b6000546040516001600160a01b0390911681526020015b60405180910390f35b6100c66100a7366004610301565b6001600160a01b031660009081526001602052604090205460ff161590565b6040519015158152602001610090565b61006f6100e4366004610301565b6101dc565b6100f1610257565b6001600160a01b03811660009081526001602052604090205460ff1661016e576001600160a01b038116600081815260016020818152604092839020805460ff19168317905582519384528301527fcf3473b85df1594d47b6958f29a32bea0abff9dd68296f7bf33443646793cfd891015b60405180910390a150565b6001600160a01b0381166000818152600160209081526040808320805460ff191690558051938452908301919091527fcf3473b85df1594d47b6958f29a32bea0abff9dd68296f7bf33443646793cfd89101610163565b50565b6101d0610257565b6101da60006102b1565b565b6101e4610257565b6001600160a01b03811661024e5760405162461bcd60e51b815260206004820152602660248201527f4f776e61626c653a206e6577206f776e657220697320746865207a65726f206160448201526564647265737360d01b60648201526084015b60405180910390fd5b6101c5816102b1565b6000546001600160a01b031633146101da5760405162461bcd60e51b815260206004820181905260248201527f4f776e61626c653a2063616c6c6572206973206e6f7420746865206f776e65726044820152606401610245565b600080546001600160a01b038381166001600160a01b0319831681178455604051919092169283917f8be0079c531659141344cd1fd0a4f28419497f9722a3daafe3b4186f6b6457e09190a35050565b600060208284031215610312578081fd5b81356001600160a01b0381168114610328578182fd5b939250505056fea2646970667358221220af74bd7160126bf0c58cdda2559994ba07e319017d08aaefa0770c746b764acb64736f6c63430008040033",
  "linkReferences": {},
  "deployedLinkReferences": {}
}